{
  "contracts/ERC.sol": {
    "ERC": {
      "abi": [
        {
          "inputs": [
            {
              "internalType": "string",
              "name": "_iName",
              "type": "string"
            },
            {
              "internalType": "string",
              "name": "_iSymbol",
              "type": "string"
            },
            {
              "internalType": "uint256",
              "name": "_iTotalSupply",
              "type": "uint256"
            },
            {
              "internalType": "uint8",
              "name": "_iDecimals",
              "type": "uint8"
            }
          ],
          "stateMutability": "nonpayable",
          "type": "constructor"
        },
        {
          "anonymous": false,
          "inputs": [
            {
              "indexed": true,
              "internalType": "address",
              "name": "_owner",
              "type": "address"
            },
            {
              "indexed": true,
              "internalType": "address",
              "name": "_spender",
              "type": "address"
            },
            {
              "indexed": false,
              "internalType": "uint256",
              "name": "_value",
              "type": "uint256"
            }
          ],
          "name": "Approval",
          "type": "event"
        },
        {
          "anonymous": false,
          "inputs": [
            {
              "indexed": true,
              "internalType": "address",
              "name": "_from",
              "type": "address"
            },
            {
              "indexed": true,
              "internalType": "address",
              "name": "_to",
              "type": "address"
            },
            {
              "indexed": false,
              "internalType": "uint256",
              "name": "_value",
              "type": "uint256"
            }
          ],
          "name": "Transfer",
          "type": "event"
        },
        {
          "inputs": [],
          "name": "_decimals",
          "outputs": [
            {
              "internalType": "uint8",
              "name": "",
              "type": "uint8"
            }
          ],
          "stateMutability": "view",
          "type": "function"
        },
        {
          "inputs": [],
          "name": "_name",
          "outputs": [
            {
              "internalType": "string",
              "name": "",
              "type": "string"
            }
          ],
          "stateMutability": "view",
          "type": "function"
        },
        {
          "inputs": [],
          "name": "_symbol",
          "outputs": [
            {
              "internalType": "string",
              "name": "",
              "type": "string"
            }
          ],
          "stateMutability": "view",
          "type": "function"
        },
        {
          "inputs": [],
          "name": "_totalSupply",
          "outputs": [
            {
              "internalType": "uint256",
              "name": "",
              "type": "uint256"
            }
          ],
          "stateMutability": "view",
          "type": "function"
        },
        {
          "inputs": [
            {
              "internalType": "address",
              "name": "_owner",
              "type": "address"
            },
            {
              "internalType": "address",
              "name": "_spender",
              "type": "address"
            }
          ],
          "name": "allowance",
          "outputs": [
            {
              "internalType": "uint256",
              "name": "",
              "type": "uint256"
            }
          ],
          "stateMutability": "view",
          "type": "function"
        },
        {
          "inputs": [
            {
              "internalType": "address",
              "name": "_spender",
              "type": "address"
            },
            {
              "internalType": "uint256",
              "name": "_value",
              "type": "uint256"
            }
          ],
          "name": "approve",
          "outputs": [
            {
              "internalType": "bool",
              "name": "",
              "type": "bool"
            }
          ],
          "stateMutability": "nonpayable",
          "type": "function"
        },
        {
          "inputs": [
            {
              "internalType": "address",
              "name": "_owner",
              "type": "address"
            }
          ],
          "name": "balanceOf",
          "outputs": [
            {
              "internalType": "uint256",
              "name": "",
              "type": "uint256"
            }
          ],
          "stateMutability": "view",
          "type": "function"
        },
        {
          "inputs": [
            {
              "internalType": "address",
              "name": "_account",
              "type": "address"
            },
            {
              "internalType": "uint256",
              "name": "_amount",
              "type": "uint256"
            }
          ],
          "name": "burn",
          "outputs": [],
          "stateMutability": "nonpayable",
          "type": "function"
        },
        {
          "inputs": [],
          "name": "decimals",
          "outputs": [
            {
              "internalType": "uint8",
              "name": "",
              "type": "uint8"
            }
          ],
          "stateMutability": "view",
          "type": "function"
        },
        {
          "inputs": [
            {
              "internalType": "address",
              "name": "_account",
              "type": "address"
            },
            {
              "internalType": "uint256",
              "name": "_amount",
              "type": "uint256"
            }
          ],
          "name": "mint",
          "outputs": [],
          "stateMutability": "nonpayable",
          "type": "function"
        },
        {
          "inputs": [],
          "name": "name",
          "outputs": [
            {
              "internalType": "string",
              "name": "",
              "type": "string"
            }
          ],
          "stateMutability": "view",
          "type": "function"
        },
        {
          "inputs": [],
          "name": "symbol",
          "outputs": [
            {
              "internalType": "string",
              "name": "",
              "type": "string"
            }
          ],
          "stateMutability": "view",
          "type": "function"
        },
        {
          "inputs": [],
          "name": "totalSupply",
          "outputs": [
            {
              "internalType": "uint256",
              "name": "",
              "type": "uint256"
            }
          ],
          "stateMutability": "view",
          "type": "function"
        },
        {
          "inputs": [
            {
              "internalType": "address",
              "name": "_to",
              "type": "address"
            },
            {
              "internalType": "uint256",
              "name": "_value",
              "type": "uint256"
            }
          ],
          "name": "transfer",
          "outputs": [
            {
              "internalType": "bool",
              "name": "",
              "type": "bool"
            }
          ],
          "stateMutability": "nonpayable",
          "type": "function"
        },
        {
          "inputs": [
            {
              "internalType": "address",
              "name": "_from",
              "type": "address"
            },
            {
              "internalType": "address",
              "name": "_to",
              "type": "address"
            },
            {
              "internalType": "uint256",
              "name": "_value",
              "type": "uint256"
            }
          ],
          "name": "transferFrom",
          "outputs": [
            {
              "internalType": "bool",
              "name": "",
              "type": "bool"
            }
          ],
          "stateMutability": "nonpayable",
          "type": "function"
        }
      ],
      "evm": {
        "bytecode": {
          "linkReferences": {},
          "object": "60806040523480156200001157600080fd5b506040516200313638038062003136833981810160405281019062000037919062000464565b6200006b7f58b07ffae8f260178b56f42fd3b61657999afa7d304fcc34413fbed7a20a2c9a60001b6200031160201b60201c565b6200009f7f4c6f3311dca5dd41fd2bbc97ab816b7befd620f7c675c0b81f1d07b3d7f6f41f60001b6200031160201b60201c565b620000d37fffc77cd5b096c471a937bd22866c0d6398a89fca1b5741fe8e52f74a56a232be60001b6200031160201b60201c565b336000806101000a81548173ffffffffffffffffffffffffffffffffffffffff021916908373ffffffffffffffffffffffffffffffffffffffff160217905550620001477fd3581d6b75b12b85841ece8ca0bdb60d55dd8eebfb88c7beac39e9e0bfa1474d60001b6200031160201b60201c565b6200017b7f912bf14c2606663152fab4b134850e2dd8398513b21e1c997d6cad0bf94aa5ad60001b6200031160201b60201c565b83600390805190602001906200019392919062000314565b50620001c87f90c81eb2e203104a3263bbe643a7078a8fc4d3b44902d79cb986cd271c5ea16660001b6200031160201b60201c565b620001fc7f9ddd07283b776c64cbdcde32582e66dbf4c71350e302eebed59adc6d7b53c04760001b6200031160201b60201c565b82600490805190602001906200021492919062000314565b50620002497f0292449316bd453062560cb1c4c5771b16c414d14570e464215cd9ffe193b07d60001b6200031160201b60201c565b6200027d7ff5894675747953129472cfcac8e1a7f00d94174ab14bb19626d9384fdbcc3ace60001b6200031160201b60201c565b81600581905550620002b87f4498afbba4fc44db890bafa04680fa70a1beb6640efb730ec4af07ef11f7816160001b6200031160201b60201c565b620002ec7f42bc623f28d05875ce6434df5d994ac97568933ee031fe01c01dba084d848f7960001b6200031160201b60201c565b80600660006101000a81548160ff021916908360ff16021790555050505050620006bd565b50565b8280546200032290620005ae565b90600052602060002090601f01602090048101928262000346576000855562000392565b82601f106200036157805160ff191683800117855562000392565b8280016001018555821562000392579182015b828111156200039157825182559160200191906001019062000374565b5b509050620003a19190620003a5565b5090565b5b80821115620003c0576000816000905550600101620003a6565b5090565b6000620003db620003d5846200052b565b62000502565b905082815260208101848484011115620003f457600080fd5b6200040184828562000578565b509392505050565b600082601f8301126200041b57600080fd5b81516200042d848260208601620003c4565b91505092915050565b600081519050620004478162000689565b92915050565b6000815190506200045e81620006a3565b92915050565b600080600080608085870312156200047b57600080fd5b600085015167ffffffffffffffff8111156200049657600080fd5b620004a48782880162000409565b945050602085015167ffffffffffffffff811115620004c257600080fd5b620004d08782880162000409565b9350506040620004e38782880162000436565b9250506060620004f6878288016200044d565b91505092959194509250565b60006200050e62000521565b90506200051c8282620005e4565b919050565b6000604051905090565b600067ffffffffffffffff82111562000549576200054862000649565b5b620005548262000678565b9050602081019050919050565b6000819050919050565b600060ff82169050919050565b60005b83811015620005985780820151818401526020810190506200057b565b83811115620005a8576000848401525b50505050565b60006002820490506001821680620005c757607f821691505b60208210811415620005de57620005dd6200061a565b5b50919050565b620005ef8262000678565b810181811067ffffffffffffffff8211171562000611576200061062000649565b5b80604052505050565b7f4e487b7100000000000000000000000000000000000000000000000000000000600052602260045260246000fd5b7f4e487b7100000000000000000000000000000000000000000000000000000000600052604160045260246000fd5b6000601f19601f8301169050919050565b620006948162000561565b8114620006a057600080fd5b50565b620006ae816200056b565b8114620006ba57600080fd5b50565b612a6980620006cd6000396000f3fe608060405234801561001057600080fd5b50600436106100f55760003560e01c806340c10f1911610097578063a9059cbb11610066578063a9059cbb14610276578063b09f1266146102a6578063d28d8852146102c4578063dd62ed3e146102e2576100f5565b806340c10f19146101f057806370a082311461020c57806395d89b411461023c5780639dc29fac1461025a576100f5565b806323b872dd116100d357806323b872dd14610166578063313ce5671461019657806332424aa3146101b45780633eaaf86b146101d2576100f5565b806306fdde03146100fa578063095ea7b31461011857806318160ddd14610148575b600080fd5b610102610312565b60405161010f91906124db565b60405180910390f35b610132600480360381019061012d91906122e3565b610428565b60405161013f91906124c0565b60405180910390f35b61015061051b565b60405161015d919061261d565b60405180910390f35b610180600480360381019061017b9190612294565b6105a9565b60405161018d91906124c0565b60405180910390f35b61019e610820565b6040516101ab9190612638565b60405180910390f35b6101bc6108bb565b6040516101c99190612638565b60405180910390f35b6101da6108ce565b6040516101e7919061261d565b60405180910390f35b61020a600480360381019061020591906122e3565b6108d4565b005b6102266004803603810190610221919061222f565b610d96565b604051610233919061261d565b60405180910390f35b610244610e63565b60405161025191906124db565b60405180910390f35b610274600480360381019061026f91906122e3565b610f79565b005b610290600480360381019061028b91906122e3565b61156d565b60405161029d91906124c0565b60405180910390f35b6102ae611660565b6040516102bb91906124db565b60405180910390f35b6102cc6116ee565b6040516102d991906124db565b60405180910390f35b6102fc60048036038101906102f79190612258565b61177c565b604051610309919061261d565b60405180910390f35b60606103407f3772126c395eff0fe5a71ce943e5dd82724793983c8a882b27950b116d9d36a760001b611887565b61036c7faa3706257df3a1e27586b630427141ab1896b2929129b1a8287c4ecb4a71508f60001b611887565b6103987fe29fb0d7b3fcd6184f9deebdb4f9b0821e5f463a016af8fddfd2f6c3e44977aa60001b611887565b600380546103a590612781565b80601f01602080910402602001604051908101604052809291908181526020018280546103d190612781565b801561041e5780601f106103f35761010080835404028352916020019161041e565b820191906000526020600020905b81548152906001019060200180831161040157829003601f168201915b5050505050905090565b60006104567ffb5e89febfbf5b7d3e1340f609d1d5a7e4ff16e9e7f1d1c76ec987915402d6ea60001b611887565b6104827fef623d15125e6d5276ae89cdd7b3ed14e92770fe7075ca7504a7a8eeaae7b8a660001b611887565b6104ae7f01936b3d44796154a9c0ae2f0a4be5f303ea13152c3192adfd0b30dad636f07c60001b611887565b6104b933848461188a565b6104e57f0b9326a39f89f4c18896d857b9a4878fdb7610f46ef156045605818624fd382360001b611887565b6105117f58428c4147de40c01ba51f76a721a58d0d6235081f11ef8bcd374a2fb6fdd3d060001b611887565b6001905092915050565b60006105497f2ee20936bab3d55b2898917af21c18c139263c1ccfe190e4e8f453b97a929e9560001b611887565b6105757f8d8161a30128112cd5450c31a8be5b0b64ab397c75b6d66839dbd53e67d5678a60001b611887565b6105a17fe2af162deab6a6f0c45efd9a4dbc137e95e866eea8495a39b879db90495eaa6d60001b611887565b600554905090565b60006105d77fe1e2214966179855ff34f27b0a90fcb7c727975d272a094a37e89ec0d8785aaa60001b611887565b6106037f6ea21ab26b5364e2662304bafae92e54bbd0872e953484889f90cd902cbe2e8b60001b611887565b61062f7f6cd4c5e8544a150ee9dcf9c5532478e226b6733e0d6a9a4cbee56b6fc4e27ff860001b611887565b61065b7f69eee6407475c1f317d8570041d2b4a48deabaf225012169212217979a3ca7e960001b611887565b600073ffffffffffffffffffffffffffffffffffffffff168473ffffffffffffffffffffffffffffffffffffffff1614156106cb576040517f08c379a00000000000000000000000000000000000000000000000000000000081526004016106c29061259d565b60405180910390fd5b6106f77fe34e10c845a162c8737ce5cfae9af781736c5326b4b667eb82c4d12dba9075b060001b611887565b6107237f351645880fab6eadf65d9e5fd05e78ceaa6c0617c9946eef2b7b14bedbbcb80d60001b611887565b61074f7f6941c61c991cba84b0caef8c0379b3d989f17522ecfc621c086f02c38ba46a7a60001b611887565b61075a843384611b70565b6107867fd3f9d9b8b65d5b194eb586676d8b07d2195f7399715443e04ac67eaad8a0e40860001b611887565b6107b27fc0f460cabada4d62799a2739fe58dc153ad469ece0c5dfd793e20ab23e009aff60001b611887565b6107bd848484611d69565b6107e97ff8d934478bac2143b13a950f19c658816a8d57190d7a77d6f39e0db076793e1d60001b611887565b6108157f5588eda8569ffa61cf0b8507f273965205608376c977bd6d125ad28bd53d31bf60001b611887565b600190509392505050565b600061084e7ffd3ce171744ca71c8e991fd17f97e757004c812f04bd9d3101c60b03cd58708d60001b611887565b61087a7f16a6652188636b423ea133e927af53d5616ed747bc06fb2408e6daa3a95ab97d60001b611887565b6108a67f2d92cad70abb34e94a741142ad4edc383a5701b941f1ed454076b4a8c21c7ec760001b611887565b600660009054906101000a900460ff16905090565b600660009054906101000a900460ff1681565b60055481565b6109007f162777d7e77b6618731c5587cd96476fd182f6a2c97071c4750114ffb9e1929060001b611887565b61092c7f8c358fa05326d3d059f81b5875329ef29e39e416e956b99eb83831b462b5a61c60001b611887565b6109587f21e567e0d7e8e8f92ee2213b0b582f085f9c89415c5278c9a93a19685b65e3b360001b611887565b6109847f13ba635debb775fb71ff07734c9adef80e37cdd2f7eef2482fd45a79ac90e22c60001b611887565b60008054906101000a900473ffffffffffffffffffffffffffffffffffffffff1673ffffffffffffffffffffffffffffffffffffffff163373ffffffffffffffffffffffffffffffffffffffff1614610a12576040517f08c379a0000000000000000000000000000000000000000000000000000000008152600401610a099061257d565b60405180910390fd5b610a3d7ecaf36cfde34b023229d59bae95dd20fcdb5629c4b9a96445a47f799d5cfc4c60001b611887565b610a697ff921d7f2dc38b0a27bc1e5ce9c9be49ac0682dbdad86153516efd691e5f061ce60001b611887565b610a957fe97ec508168546606798a94a23c8d5f941ed529fe54320a64f11dae5d1d750ec60001b611887565b610ac17f2cb546232bf5a2f3985af6d357e287f8502166cbd78c977a4deb530a912176c060001b611887565b610aed7f747af08505e43542c75c2c49a734d9be81deb7b1d3bf1e2efb574e6f1de14afb60001b611887565b610b197f939ff9bb1a89b59aaff4d6bbec5f7d43aa338e3f421503388e0fd770b884198560001b611887565b600073ffffffffffffffffffffffffffffffffffffffff168273ffffffffffffffffffffffffffffffffffffffff161415610b89576040517f08c379a0000000000000000000000000000000000000000000000000000000008152600401610b809061255d565b60405180910390fd5b610bb57fb773a95ea72b19ad91e4d89db74c59ea2ac87eb7e7b8607fa50cf2c46103049960001b611887565b610be17f81b8eace0dab69d2e8d2675d9d340acc556a9f2dc0f9fb0dcb252d5169d8c2f060001b611887565b610c0d7fa688371f7e08ee5f16d68ca8187e74c6d0b6ba8b010cda6ec800afbcd3c5f6f960001b611887565b8060056000828254610c1f919061266f565b92505081905550610c527ffd2d1687b2e46edb8aab725c859834337c18910e25685a8e3314eb7daaf49cec60001b611887565b610c7e7fe629b9cbfedfd393ae85e6251b331d0a24de9971ce2f8ce6273bf340dbe2bdd060001b611887565b80600160008473ffffffffffffffffffffffffffffffffffffffff1673ffffffffffffffffffffffffffffffffffffffff1681526020019081526020016000206000828254610ccd919061266f565b92505081905550610d007fcaffe313101ccea09575837f23683a82d95dadb28e52d4d08f6bfb2d54304fd860001b611887565b610d2c7fab826231746df3741d30b662df749ccb7ff9ac20c1ec111c0dbb4e2e5da0d5eb60001b611887565b8173ffffffffffffffffffffffffffffffffffffffff16600073ffffffffffffffffffffffffffffffffffffffff167fddf252ad1be2c89b69c2b068fc378daa952ba7f163c4a11628f55a4df523b3ef83604051610d8a919061261d565b60405180910390a35050565b6000610dc47ff846def740b4c0d7f59537fc620dc8dbec2259149c8ffc9963e7aa0005c4350e60001b611887565b610df07fe66b0543ec0a786e5c44bb33066218ed33e9a5e53738436b1d9d3815de4105ef60001b611887565b610e1c7f459e476588c63dc186af859a3859c26f813d2edf55dfcd741e98aa519acfffa860001b611887565b600160008373ffffffffffffffffffffffffffffffffffffffff1673ffffffffffffffffffffffffffffffffffffffff168152602001908152602001600020549050919050565b6060610e917f4caa56f640c6dcd29fd162964e7d5f117d9c478a5d82099873767732bc6de1a260001b611887565b610ebd7f9cd4c9fdb40f201562af2ee2a1484ce14233bbbaf9470e173766d0bd4e4393f660001b611887565b610ee97fd6bd334d3ea24e29d686ad2abed6e1f2e86eec843e599ca4f3323d872aad6db060001b611887565b60048054610ef690612781565b80601f0160208091040260200160405190810160405280929190818152602001828054610f2290612781565b8015610f6f5780601f10610f4457610100808354040283529160200191610f6f565b820191906000526020600020905b815481529060010190602001808311610f5257829003601f168201915b5050505050905090565b610fa57f162777d7e77b6618731c5587cd96476fd182f6a2c97071c4750114ffb9e1929060001b611887565b610fd17f8c358fa05326d3d059f81b5875329ef29e39e416e956b99eb83831b462b5a61c60001b611887565b610ffd7f21e567e0d7e8e8f92ee2213b0b582f085f9c89415c5278c9a93a19685b65e3b360001b611887565b6110297f13ba635debb775fb71ff07734c9adef80e37cdd2f7eef2482fd45a79ac90e22c60001b611887565b60008054906101000a900473ffffffffffffffffffffffffffffffffffffffff1673ffffffffffffffffffffffffffffffffffffffff163373ffffffffffffffffffffffffffffffffffffffff16146110b7576040517f08c379a00000000000000000000000000000000000000000000000000000000081526004016110ae9061257d565b60405180910390fd5b6110e27ecaf36cfde34b023229d59bae95dd20fcdb5629c4b9a96445a47f799d5cfc4c60001b611887565b61110e7ff921d7f2dc38b0a27bc1e5ce9c9be49ac0682dbdad86153516efd691e5f061ce60001b611887565b61113a7f3e65ef43967ab454660a5d24dcc67b79fca4b2b7b656ef625b9188dbe9aafeec60001b611887565b6111667f9b4d5f42350221e71d3c4c13d967f2cb076dab89d3fb4f539f492a5a569fb49d60001b611887565b6111927fa8feb1851757be53e2117f12c3625f242b4ac3bd7a5db645bb0a2539aab2088960001b611887565b6111be7f37edbeda5a6e99862d147dd673b87e88126be291b3046b62197f077d7d031d3560001b611887565b600073ffffffffffffffffffffffffffffffffffffffff168273ffffffffffffffffffffffffffffffffffffffff16141561122e576040517f08c379a00000000000000000000000000000000000000000000000000000000081526004016112259061253d565b60405180910390fd5b61125a7f48e2d32e8fac354482adcd2d2eb5a771268f18032308b72be9d2be0f7a8091b860001b611887565b6112867f454560fbd4c4fa34511f63b6a42b8e9bf540ba819827fa2b1b7b6cb72960206960001b611887565b6112b27f5b7906cff4b819620aead2cd4671cf74bd126018dfb41d5cc7d5d2ee6734ee4a60001b611887565b6112de7fd060c538c6d85c2e10262119862ef0150f59519e0650141761cc3eed185ecaac60001b611887565b600160008373ffffffffffffffffffffffffffffffffffffffff1673ffffffffffffffffffffffffffffffffffffffff16815260200190815260200160002054811115611360576040517f08c379a00000000000000000000000000000000000000000000000000000000081526004016113579061251d565b60405180910390fd5b61138c7fec302412ae66a7768e30f7330fcd84f36c5132157a45b77d37cdbaf50830f4ac60001b611887565b6113b87f324460679e84b367b1a7bab1c582c726dd4695a09dcbc5b507ff47f21d61291660001b611887565b6113e47fdd1ceaf8b046b215fa8d93cde45f4ffeac80acadefa0501e9c87a99c9569958660001b611887565b80600560008282546113f691906126c5565b925050819055506114297fe1c40325ccca779d7139d02ff4a74204ae83c7f137520868f88fab42b7b5516460001b611887565b6114557fe1305207fb39923d835f13582f57776e2f5ba038d106f7a52b30ca61d7d5812960001b611887565b80600160008473ffffffffffffffffffffffffffffffffffffffff1673ffffffffffffffffffffffffffffffffffffffff16815260200190815260200160002060008282546114a491906126c5565b925050819055506114d77f2fb3c467472c357a96db3e01764c05dc072627da800b50b428e351f94eed88f760001b611887565b6115037f59ee3dd4777946ed50ebed697dccbcdae70ead11d914a2332224f39447a754a960001b611887565b600073ffffffffffffffffffffffffffffffffffffffff168273ffffffffffffffffffffffffffffffffffffffff167fddf252ad1be2c89b69c2b068fc378daa952ba7f163c4a11628f55a4df523b3ef83604051611561919061261d565b60405180910390a35050565b600061159b7f2ea8ea5dcabe0198b3a06fa095002ae57831d26b6cf5ac6cc0fa470eb96b07e560001b611887565b6115c77f2e5eaa89ec1db195c260a3823be942c19b69cb8f3927abc9776646e88cbc5cee60001b611887565b6115f37fc0acda2822c7b598380492b0808b2dd610b310d8ef7964447134814e2182760160001b611887565b6115fe338484611d69565b61162a7fddac52f7ffbf8bbb23744dd4c72dfc772730b96127f7e8b05efd194ebdb0559260001b611887565b6116567f44c23dd27160bb4955145e3d5b2292873f03a5d850f7c16a372136d09e37020460001b611887565b6001905092915050565b6004805461166d90612781565b80601f016020809104026020016040519081016040528092919081815260200182805461169990612781565b80156116e65780601f106116bb576101008083540402835291602001916116e6565b820191906000526020600020905b8154815290600101906020018083116116c957829003601f168201915b505050505081565b600380546116fb90612781565b80601f016020809104026020016040519081016040528092919081815260200182805461172790612781565b80156117745780601f1061174957610100808354040283529160200191611774565b820191906000526020600020905b81548152906001019060200180831161175757829003601f168201915b505050505081565b60006117aa7f9fb0d04692da1a546746e785617d4517496f247925f99f4b5f2660d28e7a190a60001b611887565b6117d67f4020aa70c606ffc749448bf164c4040162b1b2844538af537caf3149e56b4f3b60001b611887565b6118027f47166ddd6b46f117de54059cdf9c206de861f6add093335d6741010dd402f39360001b611887565b600260008473ffffffffffffffffffffffffffffffffffffffff1673ffffffffffffffffffffffffffffffffffffffff16815260200190815260200160002060008373ffffffffffffffffffffffffffffffffffffffff1673ffffffffffffffffffffffffffffffffffffffff16815260200190815260200160002054905092915050565b50565b6118b67f7dd666147d7c14a6fd19bb8b16f374bf6080d5a23bd04825b1b229df406c51b060001b611887565b6118e27faa62361d88dbc435a1874f0fcb40824a3c1b5d75cc18a8d260b6358401b9ae5e60001b611887565b61190e7f50492ac67ed3172b2276d5ea183df0a460ccd6d7e9a402ca667a8cff270a30ef60001b611887565b6119397eb13b849e310d32f55284f153d7a540f784e0cd19c0c676407804421c9dad7d60001b611887565b600073ffffffffffffffffffffffffffffffffffffffff168273ffffffffffffffffffffffffffffffffffffffff1614156119a9576040517f08c379a00000000000000000000000000000000000000000000000000000000081526004016119a0906125bd565b60405180910390fd5b6119d57f584be29e9091c38363423892465cc65cbd9862b1088a40cb73d52c0a52d8374760001b611887565b611a017fb8cd81152d7aed4256336e3010ddf9cfa32b3359cf0a503224f312bc1cf6ed4060001b611887565b611a2d7fea76e508a798ffc2adb55d0c16f1f228618670f3b577cf2825c1fab8f0cc5e6560001b611887565b80600260008573ffffffffffffffffffffffffffffffffffffffff1673ffffffffffffffffffffffffffffffffffffffff16815260200190815260200160002060008473ffffffffffffffffffffffffffffffffffffffff1673ffffffffffffffffffffffffffffffffffffffff16815260200190815260200160002081905550611ada7f62e9bd9d64e401beb5f400e8dfe993fd2ec4dfff41dbd97e540a6c34f900baac60001b611887565b611b067f0334f537e574bfda0fca8c13f4138b26f102fefda4439a4b5e7dd54dc700961a60001b611887565b8173ffffffffffffffffffffffffffffffffffffffff168373ffffffffffffffffffffffffffffffffffffffff167f8c5be1e5ebec7d5bd14f71427d1e84f3dd0314c0f7b2291e5b200ac8c7c3b92583604051611b63919061261d565b60405180910390a3505050565b611b9c7faa5c81d0181b50bee95d01c4dc9c0513de0aa313e2a1b3e59c1a1c438e523b6360001b611887565b611bc87fb90ef3575e21d40a4d408606db5efa74266efd341293e0ff2a6a781e42f356c460001b611887565b611bf47f9b508b29d7c004b7962cdef97bf6b616ffa43bba72c2732790125e5e3d975ef160001b611887565b6000611c00848461177c565b9050611c2e7f77ebf22ebbd8d83b2b3d23a5f834c7dcad1158e56e75a46929a6626294334c7360001b611887565b611c5a7f16e224c815bf1de8a33c7b6f14eafe91736997e55e86990e0aed95e199f588f560001b611887565b611c867f91f86099dda9437302063964d3ba895b20a6cf34d6a7eb07c8c360bc88dd31b060001b611887565b80821115611cc9576040517f08c379a0000000000000000000000000000000000000000000000000000000008152600401611cc0906125dd565b60405180910390fd5b611cf57fa50ac46d6948a95b451907bf671d86bfa64dc4da3e8e4ad3f9a6567f9a10241860001b611887565b611d217f44519d869de6629d55119e1d79252f5772bcc211233e1cf227a1e801384735ec60001b611887565b611d4d7f09341eaeb3ea42d27f1a0b4c64608eb8711206bd8cc8150be3e515114cfd56b060001b611887565b611d6384848484611d5e91906126c5565b61188a565b50505050565b611d957f713f7ae6de75331c61add69209deff162c0af68845cdc6f86677e20545e45bfb60001b611887565b611dc17f567cc10b1941fd4bd0f9d1d939dee677bfd30629f9c6d76c0fb5f31927a9290760001b611887565b611ded7f2d1d1d35c4aa7b8f70d9a15bf621f39117444c974eaedfb1f633c3271cec002f60001b611887565b611e197f3953515002ce6e911bea34e46442b7678cb89d926b125c94327380c01942ea2a60001b611887565b600073ffffffffffffffffffffffffffffffffffffffff168273ffffffffffffffffffffffffffffffffffffffff161415611e89576040517f08c379a0000000000000000000000000000000000000000000000000000000008152600401611e80906125fd565b60405180910390fd5b611eb57f2391fe80e1d56d5e0edc843cb302e5aeee77a76cde5977e7f6489dbdf8aee78660001b611887565b611ee17fe2c9b43ae52d6500347c94530a6b588d6f0e05f1d78248c7b9b868015949948260001b611887565b611f0d7fa8adb64723bec2f83f8d1162d25c74cec5c0952b02aa0d5c30a4300014d19b3160001b611887565b611f397fb0ce45c30f6f027e325824b0faaf9ab1ee0d5158acd51e4c461c5234292e92da60001b611887565b600160008473ffffffffffffffffffffffffffffffffffffffff1673ffffffffffffffffffffffffffffffffffffffff16815260200190815260200160002054811115611fbb576040517f08c379a0000000000000000000000000000000000000000000000000000000008152600401611fb2906124fd565b60405180910390fd5b611fe77f9affb590c066cc9ead92268837c2ba43df453c2e9e2aaaf51485d1db3c602ed360001b611887565b6120137f71abd23201867ea63930e3033714ad7ebc5e2c1b65187db2f76d6a29c7725aae60001b611887565b61203f7f505af44e74253e8c39ddeb8c4f35c4f18385b0a2ae7d8d4ebc61a8cd55d5273560001b611887565b80600160008573ffffffffffffffffffffffffffffffffffffffff1673ffffffffffffffffffffffffffffffffffffffff168152602001908152602001600020600082825461208e91906126c5565b925050819055506120c17f01f69cfaf2e94e31e2871946fce74ad76eb9d9d463622c38330335f4413e9b7b60001b611887565b6120ed7fd3f76da32bf2dd0bfe52ad650db92945cf47b744165270a878e58a9b16b298b060001b611887565b80600160008473ffffffffffffffffffffffffffffffffffffffff1673ffffffffffffffffffffffffffffffffffffffff168152602001908152602001600020600082825461213c919061266f565b9250508190555061216f7fd2cc57f00443755339d0f2fb575f4da79f5f12aac5aa9e4a8574992ca616521560001b611887565b61219b7f127d003ff653dcf45c86de5a9073afe6e0a15c18485f4cde520188d9f46cad4e60001b611887565b8173ffffffffffffffffffffffffffffffffffffffff168373ffffffffffffffffffffffffffffffffffffffff167fddf252ad1be2c89b69c2b068fc378daa952ba7f163c4a11628f55a4df523b3ef836040516121f8919061261d565b60405180910390a3505050565b60008135905061221481612a05565b92915050565b60008135905061222981612a1c565b92915050565b60006020828403121561224157600080fd5b600061224f84828501612205565b91505092915050565b6000806040838503121561226b57600080fd5b600061227985828601612205565b925050602061228a85828601612205565b9150509250929050565b6000806000606084860312156122a957600080fd5b60006122b786828701612205565b93505060206122c886828701612205565b92505060406122d98682870161221a565b9150509250925092565b600080604083850312156122f657600080fd5b600061230485828601612205565b92505060206123158582860161221a565b9150509250929050565b6123288161270b565b82525050565b600061233982612653565b612343818561265e565b935061235381856020860161274e565b61235c81612811565b840191505092915050565b6000612374601e8361265e565b915061237f82612822565b602082019050919050565b600061239760158361265e565b91506123a28261284b565b602082019050919050565b60006123ba601b8361265e565b91506123c582612874565b602082019050919050565b60006123dd60198361265e565b91506123e88261289d565b602082019050919050565b600061240060148361265e565b915061240b826128c6565b602082019050919050565b600061242360258361265e565b915061242e826128ef565b604082019050919050565b600061244660228361265e565b91506124518261293e565b604082019050919050565b6000612469601d8361265e565b91506124748261298d565b602082019050919050565b600061248c60238361265e565b9150612497826129b6565b604082019050919050565b6124ab81612737565b82525050565b6124ba81612741565b82525050565b60006020820190506124d5600083018461231f565b92915050565b600060208201905081810360008301526124f5818461232e565b905092915050565b6000602082019050818103600083015261251681612367565b9050919050565b600060208201905081810360008301526125368161238a565b9050919050565b60006020820190508181036000830152612556816123ad565b9050919050565b60006020820190508181036000830152612576816123d0565b9050919050565b60006020820190508181036000830152612596816123f3565b9050919050565b600060208201905081810360008301526125b681612416565b9050919050565b600060208201905081810360008301526125d681612439565b9050919050565b600060208201905081810360008301526125f68161245c565b9050919050565b600060208201905081810360008301526126168161247f565b9050919050565b600060208201905061263260008301846124a2565b92915050565b600060208201905061264d60008301846124b1565b92915050565b600081519050919050565b600082825260208201905092915050565b600061267a82612737565b915061268583612737565b9250827fffffffffffffffffffffffffffffffffffffffffffffffffffffffffffffffff038211156126ba576126b96127b3565b5b828201905092915050565b60006126d082612737565b91506126db83612737565b9250828210156126ee576126ed6127b3565b5b828203905092915050565b600061270482612717565b9050919050565b60008115159050919050565b600073ffffffffffffffffffffffffffffffffffffffff82169050919050565b6000819050919050565b600060ff82169050919050565b60005b8381101561276c578082015181840152602081019050612751565b8381111561277b576000848401525b50505050565b6000600282049050600182168061279957607f821691505b602082108114156127ad576127ac6127e2565b5b50919050565b7f4e487b7100000000000000000000000000000000000000000000000000000000600052601160045260246000fd5b7f4e487b7100000000000000000000000000000000000000000000000000000000600052602260045260246000fd5b6000601f19601f8301169050919050565b7f43616e6e6f74207472616e73666572206f7574206f662062616c616e63650000600082015250565b7f416d6f756e74206f7574206f662062616c616e63650000000000000000000000600082015250565b7f43616e74206275726e2066726f6d207a65726f20616464726573730000000000600082015250565b7f43616e74206d696e7420746f207a65726f206164647265737300000000000000600082015250565b7f596f7520617265206e6f7420616e206f776e6572000000000000000000000000600082015250565b7f43616e6e6f74207472616e736665722066726f6d20746865206e756c6c20616460008201527f6472657373000000000000000000000000000000000000000000000000000000602082015250565b7f43616e6e6f7420617070726f766520746f20746865206e756c6c20616464726560008201527f7373000000000000000000000000000000000000000000000000000000000000602082015250565b7f43616e6e6f74207370656e64206f7574206f6620616c6c6f77616e6365000000600082015250565b7f43616e6e6f74207472616e7366657220746f20746865206e756c6c206164647260008201527f6573730000000000000000000000000000000000000000000000000000000000602082015250565b612a0e816126f9565b8114612a1957600080fd5b50565b612a2581612737565b8114612a3057600080fd5b5056fea2646970667358221220378054c79d7ffc7d1ba08bb7a779d3f3bb98b316d7729e5f6658b4bc689ed12464736f6c63430008040033",
          "opcodes": "PUSH1 0x80 PUSH1 0x40 MSTORE CALLVALUE DUP1 ISZERO PUSH3 0x11 JUMPI PUSH1 0x0 DUP1 REVERT JUMPDEST POP PUSH1 0x40 MLOAD PUSH3 0x3136 CODESIZE SUB DUP1 PUSH3 0x3136 DUP4 CODECOPY DUP2 DUP2 ADD PUSH1 0x40 MSTORE DUP2 ADD SWAP1 PUSH3 0x37 SWAP2 SWAP1 PUSH3 0x464 JUMP JUMPDEST PUSH3 0x6B PUSH32 0x58B07FFAE8F260178B56F42FD3B61657999AFA7D304FCC34413FBED7A20A2C9A PUSH1 0x0 SHL PUSH3 0x311 PUSH1 0x20 SHL PUSH1 0x20 SHR JUMP JUMPDEST PUSH3 0x9F PUSH32 0x4C6F3311DCA5DD41FD2BBC97AB816B7BEFD620F7C675C0B81F1D07B3D7F6F41F PUSH1 0x0 SHL PUSH3 0x311 PUSH1 0x20 SHL PUSH1 0x20 SHR JUMP JUMPDEST PUSH3 0xD3 PUSH32 0xFFC77CD5B096C471A937BD22866C0D6398A89FCA1B5741FE8E52F74A56A232BE PUSH1 0x0 SHL PUSH3 0x311 PUSH1 0x20 SHL PUSH1 0x20 SHR JUMP JUMPDEST CALLER PUSH1 0x0 DUP1 PUSH2 0x100 EXP DUP2 SLOAD DUP2 PUSH20 0xFFFFFFFFFFFFFFFFFFFFFFFFFFFFFFFFFFFFFFFF MUL NOT AND SWAP1 DUP4 PUSH20 0xFFFFFFFFFFFFFFFFFFFFFFFFFFFFFFFFFFFFFFFF AND MUL OR SWAP1 SSTORE POP PUSH3 0x147 PUSH32 0xD3581D6B75B12B85841ECE8CA0BDB60D55DD8EEBFB88C7BEAC39E9E0BFA1474D PUSH1 0x0 SHL PUSH3 0x311 PUSH1 0x20 SHL PUSH1 0x20 SHR JUMP JUMPDEST PUSH3 0x17B PUSH32 0x912BF14C2606663152FAB4B134850E2DD8398513B21E1C997D6CAD0BF94AA5AD PUSH1 0x0 SHL PUSH3 0x311 PUSH1 0x20 SHL PUSH1 0x20 SHR JUMP JUMPDEST DUP4 PUSH1 0x3 SWAP1 DUP1 MLOAD SWAP1 PUSH1 0x20 ADD SWAP1 PUSH3 0x193 SWAP3 SWAP2 SWAP1 PUSH3 0x314 JUMP JUMPDEST POP PUSH3 0x1C8 PUSH32 0x90C81EB2E203104A3263BBE643A7078A8FC4D3B44902D79CB986CD271C5EA166 PUSH1 0x0 SHL PUSH3 0x311 PUSH1 0x20 SHL PUSH1 0x20 SHR JUMP JUMPDEST PUSH3 0x1FC PUSH32 0x9DDD07283B776C64CBDCDE32582E66DBF4C71350E302EEBED59ADC6D7B53C047 PUSH1 0x0 SHL PUSH3 0x311 PUSH1 0x20 SHL PUSH1 0x20 SHR JUMP JUMPDEST DUP3 PUSH1 0x4 SWAP1 DUP1 MLOAD SWAP1 PUSH1 0x20 ADD SWAP1 PUSH3 0x214 SWAP3 SWAP2 SWAP1 PUSH3 0x314 JUMP JUMPDEST POP PUSH3 0x249 PUSH32 0x292449316BD453062560CB1C4C5771B16C414D14570E464215CD9FFE193B07D PUSH1 0x0 SHL PUSH3 0x311 PUSH1 0x20 SHL PUSH1 0x20 SHR JUMP JUMPDEST PUSH3 0x27D PUSH32 0xF5894675747953129472CFCAC8E1A7F00D94174AB14BB19626D9384FDBCC3ACE PUSH1 0x0 SHL PUSH3 0x311 PUSH1 0x20 SHL PUSH1 0x20 SHR JUMP JUMPDEST DUP2 PUSH1 0x5 DUP2 SWAP1 SSTORE POP PUSH3 0x2B8 PUSH32 0x4498AFBBA4FC44DB890BAFA04680FA70A1BEB6640EFB730EC4AF07EF11F78161 PUSH1 0x0 SHL PUSH3 0x311 PUSH1 0x20 SHL PUSH1 0x20 SHR JUMP JUMPDEST PUSH3 0x2EC PUSH32 0x42BC623F28D05875CE6434DF5D994AC97568933EE031FE01C01DBA084D848F79 PUSH1 0x0 SHL PUSH3 0x311 PUSH1 0x20 SHL PUSH1 0x20 SHR JUMP JUMPDEST DUP1 PUSH1 0x6 PUSH1 0x0 PUSH2 0x100 EXP DUP2 SLOAD DUP2 PUSH1 0xFF MUL NOT AND SWAP1 DUP4 PUSH1 0xFF AND MUL OR SWAP1 SSTORE POP POP POP POP POP PUSH3 0x6BD JUMP JUMPDEST POP JUMP JUMPDEST DUP3 DUP1 SLOAD PUSH3 0x322 SWAP1 PUSH3 0x5AE JUMP JUMPDEST SWAP1 PUSH1 0x0 MSTORE PUSH1 0x20 PUSH1 0x0 KECCAK256 SWAP1 PUSH1 0x1F ADD PUSH1 0x20 SWAP1 DIV DUP2 ADD SWAP3 DUP3 PUSH3 0x346 JUMPI PUSH1 0x0 DUP6 SSTORE PUSH3 0x392 JUMP JUMPDEST DUP3 PUSH1 0x1F LT PUSH3 0x361 JUMPI DUP1 MLOAD PUSH1 0xFF NOT AND DUP4 DUP1 ADD OR DUP6 SSTORE PUSH3 0x392 JUMP JUMPDEST DUP3 DUP1 ADD PUSH1 0x1 ADD DUP6 SSTORE DUP3 ISZERO PUSH3 0x392 JUMPI SWAP2 DUP3 ADD JUMPDEST DUP3 DUP2 GT ISZERO PUSH3 0x391 JUMPI DUP3 MLOAD DUP3 SSTORE SWAP2 PUSH1 0x20 ADD SWAP2 SWAP1 PUSH1 0x1 ADD SWAP1 PUSH3 0x374 JUMP JUMPDEST JUMPDEST POP SWAP1 POP PUSH3 0x3A1 SWAP2 SWAP1 PUSH3 0x3A5 JUMP JUMPDEST POP SWAP1 JUMP JUMPDEST JUMPDEST DUP1 DUP3 GT ISZERO PUSH3 0x3C0 JUMPI PUSH1 0x0 DUP2 PUSH1 0x0 SWAP1 SSTORE POP PUSH1 0x1 ADD PUSH3 0x3A6 JUMP JUMPDEST POP SWAP1 JUMP JUMPDEST PUSH1 0x0 PUSH3 0x3DB PUSH3 0x3D5 DUP5 PUSH3 0x52B JUMP JUMPDEST PUSH3 0x502 JUMP JUMPDEST SWAP1 POP DUP3 DUP2 MSTORE PUSH1 0x20 DUP2 ADD DUP5 DUP5 DUP5 ADD GT ISZERO PUSH3 0x3F4 JUMPI PUSH1 0x0 DUP1 REVERT JUMPDEST PUSH3 0x401 DUP5 DUP3 DUP6 PUSH3 0x578 JUMP JUMPDEST POP SWAP4 SWAP3 POP POP POP JUMP JUMPDEST PUSH1 0x0 DUP3 PUSH1 0x1F DUP4 ADD SLT PUSH3 0x41B JUMPI PUSH1 0x0 DUP1 REVERT JUMPDEST DUP2 MLOAD PUSH3 0x42D DUP5 DUP3 PUSH1 0x20 DUP7 ADD PUSH3 0x3C4 JUMP JUMPDEST SWAP2 POP POP SWAP3 SWAP2 POP POP JUMP JUMPDEST PUSH1 0x0 DUP2 MLOAD SWAP1 POP PUSH3 0x447 DUP2 PUSH3 0x689 JUMP JUMPDEST SWAP3 SWAP2 POP POP JUMP JUMPDEST PUSH1 0x0 DUP2 MLOAD SWAP1 POP PUSH3 0x45E DUP2 PUSH3 0x6A3 JUMP JUMPDEST SWAP3 SWAP2 POP POP JUMP JUMPDEST PUSH1 0x0 DUP1 PUSH1 0x0 DUP1 PUSH1 0x80 DUP6 DUP8 SUB SLT ISZERO PUSH3 0x47B JUMPI PUSH1 0x0 DUP1 REVERT JUMPDEST PUSH1 0x0 DUP6 ADD MLOAD PUSH8 0xFFFFFFFFFFFFFFFF DUP2 GT ISZERO PUSH3 0x496 JUMPI PUSH1 0x0 DUP1 REVERT JUMPDEST PUSH3 0x4A4 DUP8 DUP3 DUP9 ADD PUSH3 0x409 JUMP JUMPDEST SWAP5 POP POP PUSH1 0x20 DUP6 ADD MLOAD PUSH8 0xFFFFFFFFFFFFFFFF DUP2 GT ISZERO PUSH3 0x4C2 JUMPI PUSH1 0x0 DUP1 REVERT JUMPDEST PUSH3 0x4D0 DUP8 DUP3 DUP9 ADD PUSH3 0x409 JUMP JUMPDEST SWAP4 POP POP PUSH1 0x40 PUSH3 0x4E3 DUP8 DUP3 DUP9 ADD PUSH3 0x436 JUMP JUMPDEST SWAP3 POP POP PUSH1 0x60 PUSH3 0x4F6 DUP8 DUP3 DUP9 ADD PUSH3 0x44D JUMP JUMPDEST SWAP2 POP POP SWAP3 SWAP6 SWAP2 SWAP5 POP SWAP3 POP JUMP JUMPDEST PUSH1 0x0 PUSH3 0x50E PUSH3 0x521 JUMP JUMPDEST SWAP1 POP PUSH3 0x51C DUP3 DUP3 PUSH3 0x5E4 JUMP JUMPDEST SWAP2 SWAP1 POP JUMP JUMPDEST PUSH1 0x0 PUSH1 0x40 MLOAD SWAP1 POP SWAP1 JUMP JUMPDEST PUSH1 0x0 PUSH8 0xFFFFFFFFFFFFFFFF DUP3 GT ISZERO PUSH3 0x549 JUMPI PUSH3 0x548 PUSH3 0x649 JUMP JUMPDEST JUMPDEST PUSH3 0x554 DUP3 PUSH3 0x678 JUMP JUMPDEST SWAP1 POP PUSH1 0x20 DUP2 ADD SWAP1 POP SWAP2 SWAP1 POP JUMP JUMPDEST PUSH1 0x0 DUP2 SWAP1 POP SWAP2 SWAP1 POP JUMP JUMPDEST PUSH1 0x0 PUSH1 0xFF DUP3 AND SWAP1 POP SWAP2 SWAP1 POP JUMP JUMPDEST PUSH1 0x0 JUMPDEST DUP4 DUP2 LT ISZERO PUSH3 0x598 JUMPI DUP1 DUP3 ADD MLOAD DUP2 DUP5 ADD MSTORE PUSH1 0x20 DUP2 ADD SWAP1 POP PUSH3 0x57B JUMP JUMPDEST DUP4 DUP2 GT ISZERO PUSH3 0x5A8 JUMPI PUSH1 0x0 DUP5 DUP5 ADD MSTORE JUMPDEST POP POP POP POP JUMP JUMPDEST PUSH1 0x0 PUSH1 0x2 DUP3 DIV SWAP1 POP PUSH1 0x1 DUP3 AND DUP1 PUSH3 0x5C7 JUMPI PUSH1 0x7F DUP3 AND SWAP2 POP JUMPDEST PUSH1 0x20 DUP3 LT DUP2 EQ ISZERO PUSH3 0x5DE JUMPI PUSH3 0x5DD PUSH3 0x61A JUMP JUMPDEST JUMPDEST POP SWAP2 SWAP1 POP JUMP JUMPDEST PUSH3 0x5EF DUP3 PUSH3 0x678 JUMP JUMPDEST DUP2 ADD DUP2 DUP2 LT PUSH8 0xFFFFFFFFFFFFFFFF DUP3 GT OR ISZERO PUSH3 0x611 JUMPI PUSH3 0x610 PUSH3 0x649 JUMP JUMPDEST JUMPDEST DUP1 PUSH1 0x40 MSTORE POP POP POP JUMP JUMPDEST PUSH32 0x4E487B7100000000000000000000000000000000000000000000000000000000 PUSH1 0x0 MSTORE PUSH1 0x22 PUSH1 0x4 MSTORE PUSH1 0x24 PUSH1 0x0 REVERT JUMPDEST PUSH32 0x4E487B7100000000000000000000000000000000000000000000000000000000 PUSH1 0x0 MSTORE PUSH1 0x41 PUSH1 0x4 MSTORE PUSH1 0x24 PUSH1 0x0 REVERT JUMPDEST PUSH1 0x0 PUSH1 0x1F NOT PUSH1 0x1F DUP4 ADD AND SWAP1 POP SWAP2 SWAP1 POP JUMP JUMPDEST PUSH3 0x694 DUP2 PUSH3 0x561 JUMP JUMPDEST DUP2 EQ PUSH3 0x6A0 JUMPI PUSH1 0x0 DUP1 REVERT JUMPDEST POP JUMP JUMPDEST PUSH3 0x6AE DUP2 PUSH3 0x56B JUMP JUMPDEST DUP2 EQ PUSH3 0x6BA JUMPI PUSH1 0x0 DUP1 REVERT JUMPDEST POP JUMP JUMPDEST PUSH2 0x2A69 DUP1 PUSH3 0x6CD PUSH1 0x0 CODECOPY PUSH1 0x0 RETURN INVALID PUSH1 0x80 PUSH1 0x40 MSTORE CALLVALUE DUP1 ISZERO PUSH2 0x10 JUMPI PUSH1 0x0 DUP1 REVERT JUMPDEST POP PUSH1 0x4 CALLDATASIZE LT PUSH2 0xF5 JUMPI PUSH1 0x0 CALLDATALOAD PUSH1 0xE0 SHR DUP1 PUSH4 0x40C10F19 GT PUSH2 0x97 JUMPI DUP1 PUSH4 0xA9059CBB GT PUSH2 0x66 JUMPI DUP1 PUSH4 0xA9059CBB EQ PUSH2 0x276 JUMPI DUP1 PUSH4 0xB09F1266 EQ PUSH2 0x2A6 JUMPI DUP1 PUSH4 0xD28D8852 EQ PUSH2 0x2C4 JUMPI DUP1 PUSH4 0xDD62ED3E EQ PUSH2 0x2E2 JUMPI PUSH2 0xF5 JUMP JUMPDEST DUP1 PUSH4 0x40C10F19 EQ PUSH2 0x1F0 JUMPI DUP1 PUSH4 0x70A08231 EQ PUSH2 0x20C JUMPI DUP1 PUSH4 0x95D89B41 EQ PUSH2 0x23C JUMPI DUP1 PUSH4 0x9DC29FAC EQ PUSH2 0x25A JUMPI PUSH2 0xF5 JUMP JUMPDEST DUP1 PUSH4 0x23B872DD GT PUSH2 0xD3 JUMPI DUP1 PUSH4 0x23B872DD EQ PUSH2 0x166 JUMPI DUP1 PUSH4 0x313CE567 EQ PUSH2 0x196 JUMPI DUP1 PUSH4 0x32424AA3 EQ PUSH2 0x1B4 JUMPI DUP1 PUSH4 0x3EAAF86B EQ PUSH2 0x1D2 JUMPI PUSH2 0xF5 JUMP JUMPDEST DUP1 PUSH4 0x6FDDE03 EQ PUSH2 0xFA JUMPI DUP1 PUSH4 0x95EA7B3 EQ PUSH2 0x118 JUMPI DUP1 PUSH4 0x18160DDD EQ PUSH2 0x148 JUMPI JUMPDEST PUSH1 0x0 DUP1 REVERT JUMPDEST PUSH2 0x102 PUSH2 0x312 JUMP JUMPDEST PUSH1 0x40 MLOAD PUSH2 0x10F SWAP2 SWAP1 PUSH2 0x24DB JUMP JUMPDEST PUSH1 0x40 MLOAD DUP1 SWAP2 SUB SWAP1 RETURN JUMPDEST PUSH2 0x132 PUSH1 0x4 DUP1 CALLDATASIZE SUB DUP2 ADD SWAP1 PUSH2 0x12D SWAP2 SWAP1 PUSH2 0x22E3 JUMP JUMPDEST PUSH2 0x428 JUMP JUMPDEST PUSH1 0x40 MLOAD PUSH2 0x13F SWAP2 SWAP1 PUSH2 0x24C0 JUMP JUMPDEST PUSH1 0x40 MLOAD DUP1 SWAP2 SUB SWAP1 RETURN JUMPDEST PUSH2 0x150 PUSH2 0x51B JUMP JUMPDEST PUSH1 0x40 MLOAD PUSH2 0x15D SWAP2 SWAP1 PUSH2 0x261D JUMP JUMPDEST PUSH1 0x40 MLOAD DUP1 SWAP2 SUB SWAP1 RETURN JUMPDEST PUSH2 0x180 PUSH1 0x4 DUP1 CALLDATASIZE SUB DUP2 ADD SWAP1 PUSH2 0x17B SWAP2 SWAP1 PUSH2 0x2294 JUMP JUMPDEST PUSH2 0x5A9 JUMP JUMPDEST PUSH1 0x40 MLOAD PUSH2 0x18D SWAP2 SWAP1 PUSH2 0x24C0 JUMP JUMPDEST PUSH1 0x40 MLOAD DUP1 SWAP2 SUB SWAP1 RETURN JUMPDEST PUSH2 0x19E PUSH2 0x820 JUMP JUMPDEST PUSH1 0x40 MLOAD PUSH2 0x1AB SWAP2 SWAP1 PUSH2 0x2638 JUMP JUMPDEST PUSH1 0x40 MLOAD DUP1 SWAP2 SUB SWAP1 RETURN JUMPDEST PUSH2 0x1BC PUSH2 0x8BB JUMP JUMPDEST PUSH1 0x40 MLOAD PUSH2 0x1C9 SWAP2 SWAP1 PUSH2 0x2638 JUMP JUMPDEST PUSH1 0x40 MLOAD DUP1 SWAP2 SUB SWAP1 RETURN JUMPDEST PUSH2 0x1DA PUSH2 0x8CE JUMP JUMPDEST PUSH1 0x40 MLOAD PUSH2 0x1E7 SWAP2 SWAP1 PUSH2 0x261D JUMP JUMPDEST PUSH1 0x40 MLOAD DUP1 SWAP2 SUB SWAP1 RETURN JUMPDEST PUSH2 0x20A PUSH1 0x4 DUP1 CALLDATASIZE SUB DUP2 ADD SWAP1 PUSH2 0x205 SWAP2 SWAP1 PUSH2 0x22E3 JUMP JUMPDEST PUSH2 0x8D4 JUMP JUMPDEST STOP JUMPDEST PUSH2 0x226 PUSH1 0x4 DUP1 CALLDATASIZE SUB DUP2 ADD SWAP1 PUSH2 0x221 SWAP2 SWAP1 PUSH2 0x222F JUMP JUMPDEST PUSH2 0xD96 JUMP JUMPDEST PUSH1 0x40 MLOAD PUSH2 0x233 SWAP2 SWAP1 PUSH2 0x261D JUMP JUMPDEST PUSH1 0x40 MLOAD DUP1 SWAP2 SUB SWAP1 RETURN JUMPDEST PUSH2 0x244 PUSH2 0xE63 JUMP JUMPDEST PUSH1 0x40 MLOAD PUSH2 0x251 SWAP2 SWAP1 PUSH2 0x24DB JUMP JUMPDEST PUSH1 0x40 MLOAD DUP1 SWAP2 SUB SWAP1 RETURN JUMPDEST PUSH2 0x274 PUSH1 0x4 DUP1 CALLDATASIZE SUB DUP2 ADD SWAP1 PUSH2 0x26F SWAP2 SWAP1 PUSH2 0x22E3 JUMP JUMPDEST PUSH2 0xF79 JUMP JUMPDEST STOP JUMPDEST PUSH2 0x290 PUSH1 0x4 DUP1 CALLDATASIZE SUB DUP2 ADD SWAP1 PUSH2 0x28B SWAP2 SWAP1 PUSH2 0x22E3 JUMP JUMPDEST PUSH2 0x156D JUMP JUMPDEST PUSH1 0x40 MLOAD PUSH2 0x29D SWAP2 SWAP1 PUSH2 0x24C0 JUMP JUMPDEST PUSH1 0x40 MLOAD DUP1 SWAP2 SUB SWAP1 RETURN JUMPDEST PUSH2 0x2AE PUSH2 0x1660 JUMP JUMPDEST PUSH1 0x40 MLOAD PUSH2 0x2BB SWAP2 SWAP1 PUSH2 0x24DB JUMP JUMPDEST PUSH1 0x40 MLOAD DUP1 SWAP2 SUB SWAP1 RETURN JUMPDEST PUSH2 0x2CC PUSH2 0x16EE JUMP JUMPDEST PUSH1 0x40 MLOAD PUSH2 0x2D9 SWAP2 SWAP1 PUSH2 0x24DB JUMP JUMPDEST PUSH1 0x40 MLOAD DUP1 SWAP2 SUB SWAP1 RETURN JUMPDEST PUSH2 0x2FC PUSH1 0x4 DUP1 CALLDATASIZE SUB DUP2 ADD SWAP1 PUSH2 0x2F7 SWAP2 SWAP1 PUSH2 0x2258 JUMP JUMPDEST PUSH2 0x177C JUMP JUMPDEST PUSH1 0x40 MLOAD PUSH2 0x309 SWAP2 SWAP1 PUSH2 0x261D JUMP JUMPDEST PUSH1 0x40 MLOAD DUP1 SWAP2 SUB SWAP1 RETURN JUMPDEST PUSH1 0x60 PUSH2 0x340 PUSH32 0x3772126C395EFF0FE5A71CE943E5DD82724793983C8A882B27950B116D9D36A7 PUSH1 0x0 SHL PUSH2 0x1887 JUMP JUMPDEST PUSH2 0x36C PUSH32 0xAA3706257DF3A1E27586B630427141AB1896B2929129B1A8287C4ECB4A71508F PUSH1 0x0 SHL PUSH2 0x1887 JUMP JUMPDEST PUSH2 0x398 PUSH32 0xE29FB0D7B3FCD6184F9DEEBDB4F9B0821E5F463A016AF8FDDFD2F6C3E44977AA PUSH1 0x0 SHL PUSH2 0x1887 JUMP JUMPDEST PUSH1 0x3 DUP1 SLOAD PUSH2 0x3A5 SWAP1 PUSH2 0x2781 JUMP JUMPDEST DUP1 PUSH1 0x1F ADD PUSH1 0x20 DUP1 SWAP2 DIV MUL PUSH1 0x20 ADD PUSH1 0x40 MLOAD SWAP1 DUP2 ADD PUSH1 0x40 MSTORE DUP1 SWAP3 SWAP2 SWAP1 DUP2 DUP2 MSTORE PUSH1 0x20 ADD DUP3 DUP1 SLOAD PUSH2 0x3D1 SWAP1 PUSH2 0x2781 JUMP JUMPDEST DUP1 ISZERO PUSH2 0x41E JUMPI DUP1 PUSH1 0x1F LT PUSH2 0x3F3 JUMPI PUSH2 0x100 DUP1 DUP4 SLOAD DIV MUL DUP4 MSTORE SWAP2 PUSH1 0x20 ADD SWAP2 PUSH2 0x41E JUMP JUMPDEST DUP3 ADD SWAP2 SWAP1 PUSH1 0x0 MSTORE PUSH1 0x20 PUSH1 0x0 KECCAK256 SWAP1 JUMPDEST DUP2 SLOAD DUP2 MSTORE SWAP1 PUSH1 0x1 ADD SWAP1 PUSH1 0x20 ADD DUP1 DUP4 GT PUSH2 0x401 JUMPI DUP3 SWAP1 SUB PUSH1 0x1F AND DUP3 ADD SWAP2 JUMPDEST POP POP POP POP POP SWAP1 POP SWAP1 JUMP JUMPDEST PUSH1 0x0 PUSH2 0x456 PUSH32 0xFB5E89FEBFBF5B7D3E1340F609D1D5A7E4FF16E9E7F1D1C76EC987915402D6EA PUSH1 0x0 SHL PUSH2 0x1887 JUMP JUMPDEST PUSH2 0x482 PUSH32 0xEF623D15125E6D5276AE89CDD7B3ED14E92770FE7075CA7504A7A8EEAAE7B8A6 PUSH1 0x0 SHL PUSH2 0x1887 JUMP JUMPDEST PUSH2 0x4AE PUSH32 0x1936B3D44796154A9C0AE2F0A4BE5F303EA13152C3192ADFD0B30DAD636F07C PUSH1 0x0 SHL PUSH2 0x1887 JUMP JUMPDEST PUSH2 0x4B9 CALLER DUP5 DUP5 PUSH2 0x188A JUMP JUMPDEST PUSH2 0x4E5 PUSH32 0xB9326A39F89F4C18896D857B9A4878FDB7610F46EF156045605818624FD3823 PUSH1 0x0 SHL PUSH2 0x1887 JUMP JUMPDEST PUSH2 0x511 PUSH32 0x58428C4147DE40C01BA51F76A721A58D0D6235081F11EF8BCD374A2FB6FDD3D0 PUSH1 0x0 SHL PUSH2 0x1887 JUMP JUMPDEST PUSH1 0x1 SWAP1 POP SWAP3 SWAP2 POP POP JUMP JUMPDEST PUSH1 0x0 PUSH2 0x549 PUSH32 0x2EE20936BAB3D55B2898917AF21C18C139263C1CCFE190E4E8F453B97A929E95 PUSH1 0x0 SHL PUSH2 0x1887 JUMP JUMPDEST PUSH2 0x575 PUSH32 0x8D8161A30128112CD5450C31A8BE5B0B64AB397C75B6D66839DBD53E67D5678A PUSH1 0x0 SHL PUSH2 0x1887 JUMP JUMPDEST PUSH2 0x5A1 PUSH32 0xE2AF162DEAB6A6F0C45EFD9A4DBC137E95E866EEA8495A39B879DB90495EAA6D PUSH1 0x0 SHL PUSH2 0x1887 JUMP JUMPDEST PUSH1 0x5 SLOAD SWAP1 POP SWAP1 JUMP JUMPDEST PUSH1 0x0 PUSH2 0x5D7 PUSH32 0xE1E2214966179855FF34F27B0A90FCB7C727975D272A094A37E89EC0D8785AAA PUSH1 0x0 SHL PUSH2 0x1887 JUMP JUMPDEST PUSH2 0x603 PUSH32 0x6EA21AB26B5364E2662304BAFAE92E54BBD0872E953484889F90CD902CBE2E8B PUSH1 0x0 SHL PUSH2 0x1887 JUMP JUMPDEST PUSH2 0x62F PUSH32 0x6CD4C5E8544A150EE9DCF9C5532478E226B6733E0D6A9A4CBEE56B6FC4E27FF8 PUSH1 0x0 SHL PUSH2 0x1887 JUMP JUMPDEST PUSH2 0x65B PUSH32 0x69EEE6407475C1F317D8570041D2B4A48DEABAF225012169212217979A3CA7E9 PUSH1 0x0 SHL PUSH2 0x1887 JUMP JUMPDEST PUSH1 0x0 PUSH20 0xFFFFFFFFFFFFFFFFFFFFFFFFFFFFFFFFFFFFFFFF AND DUP5 PUSH20 0xFFFFFFFFFFFFFFFFFFFFFFFFFFFFFFFFFFFFFFFF AND EQ ISZERO PUSH2 0x6CB JUMPI PUSH1 0x40 MLOAD PUSH32 0x8C379A000000000000000000000000000000000000000000000000000000000 DUP2 MSTORE PUSH1 0x4 ADD PUSH2 0x6C2 SWAP1 PUSH2 0x259D JUMP JUMPDEST PUSH1 0x40 MLOAD DUP1 SWAP2 SUB SWAP1 REVERT JUMPDEST PUSH2 0x6F7 PUSH32 0xE34E10C845A162C8737CE5CFAE9AF781736C5326B4B667EB82C4D12DBA9075B0 PUSH1 0x0 SHL PUSH2 0x1887 JUMP JUMPDEST PUSH2 0x723 PUSH32 0x351645880FAB6EADF65D9E5FD05E78CEAA6C0617C9946EEF2B7B14BEDBBCB80D PUSH1 0x0 SHL PUSH2 0x1887 JUMP JUMPDEST PUSH2 0x74F PUSH32 0x6941C61C991CBA84B0CAEF8C0379B3D989F17522ECFC621C086F02C38BA46A7A PUSH1 0x0 SHL PUSH2 0x1887 JUMP JUMPDEST PUSH2 0x75A DUP5 CALLER DUP5 PUSH2 0x1B70 JUMP JUMPDEST PUSH2 0x786 PUSH32 0xD3F9D9B8B65D5B194EB586676D8B07D2195F7399715443E04AC67EAAD8A0E408 PUSH1 0x0 SHL PUSH2 0x1887 JUMP JUMPDEST PUSH2 0x7B2 PUSH32 0xC0F460CABADA4D62799A2739FE58DC153AD469ECE0C5DFD793E20AB23E009AFF PUSH1 0x0 SHL PUSH2 0x1887 JUMP JUMPDEST PUSH2 0x7BD DUP5 DUP5 DUP5 PUSH2 0x1D69 JUMP JUMPDEST PUSH2 0x7E9 PUSH32 0xF8D934478BAC2143B13A950F19C658816A8D57190D7A77D6F39E0DB076793E1D PUSH1 0x0 SHL PUSH2 0x1887 JUMP JUMPDEST PUSH2 0x815 PUSH32 0x5588EDA8569FFA61CF0B8507F273965205608376C977BD6D125AD28BD53D31BF PUSH1 0x0 SHL PUSH2 0x1887 JUMP JUMPDEST PUSH1 0x1 SWAP1 POP SWAP4 SWAP3 POP POP POP JUMP JUMPDEST PUSH1 0x0 PUSH2 0x84E PUSH32 0xFD3CE171744CA71C8E991FD17F97E757004C812F04BD9D3101C60B03CD58708D PUSH1 0x0 SHL PUSH2 0x1887 JUMP JUMPDEST PUSH2 0x87A PUSH32 0x16A6652188636B423EA133E927AF53D5616ED747BC06FB2408E6DAA3A95AB97D PUSH1 0x0 SHL PUSH2 0x1887 JUMP JUMPDEST PUSH2 0x8A6 PUSH32 0x2D92CAD70ABB34E94A741142AD4EDC383A5701B941F1ED454076B4A8C21C7EC7 PUSH1 0x0 SHL PUSH2 0x1887 JUMP JUMPDEST PUSH1 0x6 PUSH1 0x0 SWAP1 SLOAD SWAP1 PUSH2 0x100 EXP SWAP1 DIV PUSH1 0xFF AND SWAP1 POP SWAP1 JUMP JUMPDEST PUSH1 0x6 PUSH1 0x0 SWAP1 SLOAD SWAP1 PUSH2 0x100 EXP SWAP1 DIV PUSH1 0xFF AND DUP2 JUMP JUMPDEST PUSH1 0x5 SLOAD DUP2 JUMP JUMPDEST PUSH2 0x900 PUSH32 0x162777D7E77B6618731C5587CD96476FD182F6A2C97071C4750114FFB9E19290 PUSH1 0x0 SHL PUSH2 0x1887 JUMP JUMPDEST PUSH2 0x92C PUSH32 0x8C358FA05326D3D059F81B5875329EF29E39E416E956B99EB83831B462B5A61C PUSH1 0x0 SHL PUSH2 0x1887 JUMP JUMPDEST PUSH2 0x958 PUSH32 0x21E567E0D7E8E8F92EE2213B0B582F085F9C89415C5278C9A93A19685B65E3B3 PUSH1 0x0 SHL PUSH2 0x1887 JUMP JUMPDEST PUSH2 0x984 PUSH32 0x13BA635DEBB775FB71FF07734C9ADEF80E37CDD2F7EEF2482FD45A79AC90E22C PUSH1 0x0 SHL PUSH2 0x1887 JUMP JUMPDEST PUSH1 0x0 DUP1 SLOAD SWAP1 PUSH2 0x100 EXP SWAP1 DIV PUSH20 0xFFFFFFFFFFFFFFFFFFFFFFFFFFFFFFFFFFFFFFFF AND PUSH20 0xFFFFFFFFFFFFFFFFFFFFFFFFFFFFFFFFFFFFFFFF AND CALLER PUSH20 0xFFFFFFFFFFFFFFFFFFFFFFFFFFFFFFFFFFFFFFFF AND EQ PUSH2 0xA12 JUMPI PUSH1 0x40 MLOAD PUSH32 0x8C379A000000000000000000000000000000000000000000000000000000000 DUP2 MSTORE PUSH1 0x4 ADD PUSH2 0xA09 SWAP1 PUSH2 0x257D JUMP JUMPDEST PUSH1 0x40 MLOAD DUP1 SWAP2 SUB SWAP1 REVERT JUMPDEST PUSH2 0xA3D PUSH31 0xCAF36CFDE34B023229D59BAE95DD20FCDB5629C4B9A96445A47F799D5CFC4C PUSH1 0x0 SHL PUSH2 0x1887 JUMP JUMPDEST PUSH2 0xA69 PUSH32 0xF921D7F2DC38B0A27BC1E5CE9C9BE49AC0682DBDAD86153516EFD691E5F061CE PUSH1 0x0 SHL PUSH2 0x1887 JUMP JUMPDEST PUSH2 0xA95 PUSH32 0xE97EC508168546606798A94A23C8D5F941ED529FE54320A64F11DAE5D1D750EC PUSH1 0x0 SHL PUSH2 0x1887 JUMP JUMPDEST PUSH2 0xAC1 PUSH32 0x2CB546232BF5A2F3985AF6D357E287F8502166CBD78C977A4DEB530A912176C0 PUSH1 0x0 SHL PUSH2 0x1887 JUMP JUMPDEST PUSH2 0xAED PUSH32 0x747AF08505E43542C75C2C49A734D9BE81DEB7B1D3BF1E2EFB574E6F1DE14AFB PUSH1 0x0 SHL PUSH2 0x1887 JUMP JUMPDEST PUSH2 0xB19 PUSH32 0x939FF9BB1A89B59AAFF4D6BBEC5F7D43AA338E3F421503388E0FD770B8841985 PUSH1 0x0 SHL PUSH2 0x1887 JUMP JUMPDEST PUSH1 0x0 PUSH20 0xFFFFFFFFFFFFFFFFFFFFFFFFFFFFFFFFFFFFFFFF AND DUP3 PUSH20 0xFFFFFFFFFFFFFFFFFFFFFFFFFFFFFFFFFFFFFFFF AND EQ ISZERO PUSH2 0xB89 JUMPI PUSH1 0x40 MLOAD PUSH32 0x8C379A000000000000000000000000000000000000000000000000000000000 DUP2 MSTORE PUSH1 0x4 ADD PUSH2 0xB80 SWAP1 PUSH2 0x255D JUMP JUMPDEST PUSH1 0x40 MLOAD DUP1 SWAP2 SUB SWAP1 REVERT JUMPDEST PUSH2 0xBB5 PUSH32 0xB773A95EA72B19AD91E4D89DB74C59EA2AC87EB7E7B8607FA50CF2C461030499 PUSH1 0x0 SHL PUSH2 0x1887 JUMP JUMPDEST PUSH2 0xBE1 PUSH32 0x81B8EACE0DAB69D2E8D2675D9D340ACC556A9F2DC0F9FB0DCB252D5169D8C2F0 PUSH1 0x0 SHL PUSH2 0x1887 JUMP JUMPDEST PUSH2 0xC0D PUSH32 0xA688371F7E08EE5F16D68CA8187E74C6D0B6BA8B010CDA6EC800AFBCD3C5F6F9 PUSH1 0x0 SHL PUSH2 0x1887 JUMP JUMPDEST DUP1 PUSH1 0x5 PUSH1 0x0 DUP3 DUP3 SLOAD PUSH2 0xC1F SWAP2 SWAP1 PUSH2 0x266F JUMP JUMPDEST SWAP3 POP POP DUP2 SWAP1 SSTORE POP PUSH2 0xC52 PUSH32 0xFD2D1687B2E46EDB8AAB725C859834337C18910E25685A8E3314EB7DAAF49CEC PUSH1 0x0 SHL PUSH2 0x1887 JUMP JUMPDEST PUSH2 0xC7E PUSH32 0xE629B9CBFEDFD393AE85E6251B331D0A24DE9971CE2F8CE6273BF340DBE2BDD0 PUSH1 0x0 SHL PUSH2 0x1887 JUMP JUMPDEST DUP1 PUSH1 0x1 PUSH1 0x0 DUP5 PUSH20 0xFFFFFFFFFFFFFFFFFFFFFFFFFFFFFFFFFFFFFFFF AND PUSH20 0xFFFFFFFFFFFFFFFFFFFFFFFFFFFFFFFFFFFFFFFF AND DUP2 MSTORE PUSH1 0x20 ADD SWAP1 DUP2 MSTORE PUSH1 0x20 ADD PUSH1 0x0 KECCAK256 PUSH1 0x0 DUP3 DUP3 SLOAD PUSH2 0xCCD SWAP2 SWAP1 PUSH2 0x266F JUMP JUMPDEST SWAP3 POP POP DUP2 SWAP1 SSTORE POP PUSH2 0xD00 PUSH32 0xCAFFE313101CCEA09575837F23683A82D95DADB28E52D4D08F6BFB2D54304FD8 PUSH1 0x0 SHL PUSH2 0x1887 JUMP JUMPDEST PUSH2 0xD2C PUSH32 0xAB826231746DF3741D30B662DF749CCB7FF9AC20C1EC111C0DBB4E2E5DA0D5EB PUSH1 0x0 SHL PUSH2 0x1887 JUMP JUMPDEST DUP2 PUSH20 0xFFFFFFFFFFFFFFFFFFFFFFFFFFFFFFFFFFFFFFFF AND PUSH1 0x0 PUSH20 0xFFFFFFFFFFFFFFFFFFFFFFFFFFFFFFFFFFFFFFFF AND PUSH32 0xDDF252AD1BE2C89B69C2B068FC378DAA952BA7F163C4A11628F55A4DF523B3EF DUP4 PUSH1 0x40 MLOAD PUSH2 0xD8A SWAP2 SWAP1 PUSH2 0x261D JUMP JUMPDEST PUSH1 0x40 MLOAD DUP1 SWAP2 SUB SWAP1 LOG3 POP POP JUMP JUMPDEST PUSH1 0x0 PUSH2 0xDC4 PUSH32 0xF846DEF740B4C0D7F59537FC620DC8DBEC2259149C8FFC9963E7AA0005C4350E PUSH1 0x0 SHL PUSH2 0x1887 JUMP JUMPDEST PUSH2 0xDF0 PUSH32 0xE66B0543EC0A786E5C44BB33066218ED33E9A5E53738436B1D9D3815DE4105EF PUSH1 0x0 SHL PUSH2 0x1887 JUMP JUMPDEST PUSH2 0xE1C PUSH32 0x459E476588C63DC186AF859A3859C26F813D2EDF55DFCD741E98AA519ACFFFA8 PUSH1 0x0 SHL PUSH2 0x1887 JUMP JUMPDEST PUSH1 0x1 PUSH1 0x0 DUP4 PUSH20 0xFFFFFFFFFFFFFFFFFFFFFFFFFFFFFFFFFFFFFFFF AND PUSH20 0xFFFFFFFFFFFFFFFFFFFFFFFFFFFFFFFFFFFFFFFF AND DUP2 MSTORE PUSH1 0x20 ADD SWAP1 DUP2 MSTORE PUSH1 0x20 ADD PUSH1 0x0 KECCAK256 SLOAD SWAP1 POP SWAP2 SWAP1 POP JUMP JUMPDEST PUSH1 0x60 PUSH2 0xE91 PUSH32 0x4CAA56F640C6DCD29FD162964E7D5F117D9C478A5D82099873767732BC6DE1A2 PUSH1 0x0 SHL PUSH2 0x1887 JUMP JUMPDEST PUSH2 0xEBD PUSH32 0x9CD4C9FDB40F201562AF2EE2A1484CE14233BBBAF9470E173766D0BD4E4393F6 PUSH1 0x0 SHL PUSH2 0x1887 JUMP JUMPDEST PUSH2 0xEE9 PUSH32 0xD6BD334D3EA24E29D686AD2ABED6E1F2E86EEC843E599CA4F3323D872AAD6DB0 PUSH1 0x0 SHL PUSH2 0x1887 JUMP JUMPDEST PUSH1 0x4 DUP1 SLOAD PUSH2 0xEF6 SWAP1 PUSH2 0x2781 JUMP JUMPDEST DUP1 PUSH1 0x1F ADD PUSH1 0x20 DUP1 SWAP2 DIV MUL PUSH1 0x20 ADD PUSH1 0x40 MLOAD SWAP1 DUP2 ADD PUSH1 0x40 MSTORE DUP1 SWAP3 SWAP2 SWAP1 DUP2 DUP2 MSTORE PUSH1 0x20 ADD DUP3 DUP1 SLOAD PUSH2 0xF22 SWAP1 PUSH2 0x2781 JUMP JUMPDEST DUP1 ISZERO PUSH2 0xF6F JUMPI DUP1 PUSH1 0x1F LT PUSH2 0xF44 JUMPI PUSH2 0x100 DUP1 DUP4 SLOAD DIV MUL DUP4 MSTORE SWAP2 PUSH1 0x20 ADD SWAP2 PUSH2 0xF6F JUMP JUMPDEST DUP3 ADD SWAP2 SWAP1 PUSH1 0x0 MSTORE PUSH1 0x20 PUSH1 0x0 KECCAK256 SWAP1 JUMPDEST DUP2 SLOAD DUP2 MSTORE SWAP1 PUSH1 0x1 ADD SWAP1 PUSH1 0x20 ADD DUP1 DUP4 GT PUSH2 0xF52 JUMPI DUP3 SWAP1 SUB PUSH1 0x1F AND DUP3 ADD SWAP2 JUMPDEST POP POP POP POP POP SWAP1 POP SWAP1 JUMP JUMPDEST PUSH2 0xFA5 PUSH32 0x162777D7E77B6618731C5587CD96476FD182F6A2C97071C4750114FFB9E19290 PUSH1 0x0 SHL PUSH2 0x1887 JUMP JUMPDEST PUSH2 0xFD1 PUSH32 0x8C358FA05326D3D059F81B5875329EF29E39E416E956B99EB83831B462B5A61C PUSH1 0x0 SHL PUSH2 0x1887 JUMP JUMPDEST PUSH2 0xFFD PUSH32 0x21E567E0D7E8E8F92EE2213B0B582F085F9C89415C5278C9A93A19685B65E3B3 PUSH1 0x0 SHL PUSH2 0x1887 JUMP JUMPDEST PUSH2 0x1029 PUSH32 0x13BA635DEBB775FB71FF07734C9ADEF80E37CDD2F7EEF2482FD45A79AC90E22C PUSH1 0x0 SHL PUSH2 0x1887 JUMP JUMPDEST PUSH1 0x0 DUP1 SLOAD SWAP1 PUSH2 0x100 EXP SWAP1 DIV PUSH20 0xFFFFFFFFFFFFFFFFFFFFFFFFFFFFFFFFFFFFFFFF AND PUSH20 0xFFFFFFFFFFFFFFFFFFFFFFFFFFFFFFFFFFFFFFFF AND CALLER PUSH20 0xFFFFFFFFFFFFFFFFFFFFFFFFFFFFFFFFFFFFFFFF AND EQ PUSH2 0x10B7 JUMPI PUSH1 0x40 MLOAD PUSH32 0x8C379A000000000000000000000000000000000000000000000000000000000 DUP2 MSTORE PUSH1 0x4 ADD PUSH2 0x10AE SWAP1 PUSH2 0x257D JUMP JUMPDEST PUSH1 0x40 MLOAD DUP1 SWAP2 SUB SWAP1 REVERT JUMPDEST PUSH2 0x10E2 PUSH31 0xCAF36CFDE34B023229D59BAE95DD20FCDB5629C4B9A96445A47F799D5CFC4C PUSH1 0x0 SHL PUSH2 0x1887 JUMP JUMPDEST PUSH2 0x110E PUSH32 0xF921D7F2DC38B0A27BC1E5CE9C9BE49AC0682DBDAD86153516EFD691E5F061CE PUSH1 0x0 SHL PUSH2 0x1887 JUMP JUMPDEST PUSH2 0x113A PUSH32 0x3E65EF43967AB454660A5D24DCC67B79FCA4B2B7B656EF625B9188DBE9AAFEEC PUSH1 0x0 SHL PUSH2 0x1887 JUMP JUMPDEST PUSH2 0x1166 PUSH32 0x9B4D5F42350221E71D3C4C13D967F2CB076DAB89D3FB4F539F492A5A569FB49D PUSH1 0x0 SHL PUSH2 0x1887 JUMP JUMPDEST PUSH2 0x1192 PUSH32 0xA8FEB1851757BE53E2117F12C3625F242B4AC3BD7A5DB645BB0A2539AAB20889 PUSH1 0x0 SHL PUSH2 0x1887 JUMP JUMPDEST PUSH2 0x11BE PUSH32 0x37EDBEDA5A6E99862D147DD673B87E88126BE291B3046B62197F077D7D031D35 PUSH1 0x0 SHL PUSH2 0x1887 JUMP JUMPDEST PUSH1 0x0 PUSH20 0xFFFFFFFFFFFFFFFFFFFFFFFFFFFFFFFFFFFFFFFF AND DUP3 PUSH20 0xFFFFFFFFFFFFFFFFFFFFFFFFFFFFFFFFFFFFFFFF AND EQ ISZERO PUSH2 0x122E JUMPI PUSH1 0x40 MLOAD PUSH32 0x8C379A000000000000000000000000000000000000000000000000000000000 DUP2 MSTORE PUSH1 0x4 ADD PUSH2 0x1225 SWAP1 PUSH2 0x253D JUMP JUMPDEST PUSH1 0x40 MLOAD DUP1 SWAP2 SUB SWAP1 REVERT JUMPDEST PUSH2 0x125A PUSH32 0x48E2D32E8FAC354482ADCD2D2EB5A771268F18032308B72BE9D2BE0F7A8091B8 PUSH1 0x0 SHL PUSH2 0x1887 JUMP JUMPDEST PUSH2 0x1286 PUSH32 0x454560FBD4C4FA34511F63B6A42B8E9BF540BA819827FA2B1B7B6CB729602069 PUSH1 0x0 SHL PUSH2 0x1887 JUMP JUMPDEST PUSH2 0x12B2 PUSH32 0x5B7906CFF4B819620AEAD2CD4671CF74BD126018DFB41D5CC7D5D2EE6734EE4A PUSH1 0x0 SHL PUSH2 0x1887 JUMP JUMPDEST PUSH2 0x12DE PUSH32 0xD060C538C6D85C2E10262119862EF0150F59519E0650141761CC3EED185ECAAC PUSH1 0x0 SHL PUSH2 0x1887 JUMP JUMPDEST PUSH1 0x1 PUSH1 0x0 DUP4 PUSH20 0xFFFFFFFFFFFFFFFFFFFFFFFFFFFFFFFFFFFFFFFF AND PUSH20 0xFFFFFFFFFFFFFFFFFFFFFFFFFFFFFFFFFFFFFFFF AND DUP2 MSTORE PUSH1 0x20 ADD SWAP1 DUP2 MSTORE PUSH1 0x20 ADD PUSH1 0x0 KECCAK256 SLOAD DUP2 GT ISZERO PUSH2 0x1360 JUMPI PUSH1 0x40 MLOAD PUSH32 0x8C379A000000000000000000000000000000000000000000000000000000000 DUP2 MSTORE PUSH1 0x4 ADD PUSH2 0x1357 SWAP1 PUSH2 0x251D JUMP JUMPDEST PUSH1 0x40 MLOAD DUP1 SWAP2 SUB SWAP1 REVERT JUMPDEST PUSH2 0x138C PUSH32 0xEC302412AE66A7768E30F7330FCD84F36C5132157A45B77D37CDBAF50830F4AC PUSH1 0x0 SHL PUSH2 0x1887 JUMP JUMPDEST PUSH2 0x13B8 PUSH32 0x324460679E84B367B1A7BAB1C582C726DD4695A09DCBC5B507FF47F21D612916 PUSH1 0x0 SHL PUSH2 0x1887 JUMP JUMPDEST PUSH2 0x13E4 PUSH32 0xDD1CEAF8B046B215FA8D93CDE45F4FFEAC80ACADEFA0501E9C87A99C95699586 PUSH1 0x0 SHL PUSH2 0x1887 JUMP JUMPDEST DUP1 PUSH1 0x5 PUSH1 0x0 DUP3 DUP3 SLOAD PUSH2 0x13F6 SWAP2 SWAP1 PUSH2 0x26C5 JUMP JUMPDEST SWAP3 POP POP DUP2 SWAP1 SSTORE POP PUSH2 0x1429 PUSH32 0xE1C40325CCCA779D7139D02FF4A74204AE83C7F137520868F88FAB42B7B55164 PUSH1 0x0 SHL PUSH2 0x1887 JUMP JUMPDEST PUSH2 0x1455 PUSH32 0xE1305207FB39923D835F13582F57776E2F5BA038D106F7A52B30CA61D7D58129 PUSH1 0x0 SHL PUSH2 0x1887 JUMP JUMPDEST DUP1 PUSH1 0x1 PUSH1 0x0 DUP5 PUSH20 0xFFFFFFFFFFFFFFFFFFFFFFFFFFFFFFFFFFFFFFFF AND PUSH20 0xFFFFFFFFFFFFFFFFFFFFFFFFFFFFFFFFFFFFFFFF AND DUP2 MSTORE PUSH1 0x20 ADD SWAP1 DUP2 MSTORE PUSH1 0x20 ADD PUSH1 0x0 KECCAK256 PUSH1 0x0 DUP3 DUP3 SLOAD PUSH2 0x14A4 SWAP2 SWAP1 PUSH2 0x26C5 JUMP JUMPDEST SWAP3 POP POP DUP2 SWAP1 SSTORE POP PUSH2 0x14D7 PUSH32 0x2FB3C467472C357A96DB3E01764C05DC072627DA800B50B428E351F94EED88F7 PUSH1 0x0 SHL PUSH2 0x1887 JUMP JUMPDEST PUSH2 0x1503 PUSH32 0x59EE3DD4777946ED50EBED697DCCBCDAE70EAD11D914A2332224F39447A754A9 PUSH1 0x0 SHL PUSH2 0x1887 JUMP JUMPDEST PUSH1 0x0 PUSH20 0xFFFFFFFFFFFFFFFFFFFFFFFFFFFFFFFFFFFFFFFF AND DUP3 PUSH20 0xFFFFFFFFFFFFFFFFFFFFFFFFFFFFFFFFFFFFFFFF AND PUSH32 0xDDF252AD1BE2C89B69C2B068FC378DAA952BA7F163C4A11628F55A4DF523B3EF DUP4 PUSH1 0x40 MLOAD PUSH2 0x1561 SWAP2 SWAP1 PUSH2 0x261D JUMP JUMPDEST PUSH1 0x40 MLOAD DUP1 SWAP2 SUB SWAP1 LOG3 POP POP JUMP JUMPDEST PUSH1 0x0 PUSH2 0x159B PUSH32 0x2EA8EA5DCABE0198B3A06FA095002AE57831D26B6CF5AC6CC0FA470EB96B07E5 PUSH1 0x0 SHL PUSH2 0x1887 JUMP JUMPDEST PUSH2 0x15C7 PUSH32 0x2E5EAA89EC1DB195C260A3823BE942C19B69CB8F3927ABC9776646E88CBC5CEE PUSH1 0x0 SHL PUSH2 0x1887 JUMP JUMPDEST PUSH2 0x15F3 PUSH32 0xC0ACDA2822C7B598380492B0808B2DD610B310D8EF7964447134814E21827601 PUSH1 0x0 SHL PUSH2 0x1887 JUMP JUMPDEST PUSH2 0x15FE CALLER DUP5 DUP5 PUSH2 0x1D69 JUMP JUMPDEST PUSH2 0x162A PUSH32 0xDDAC52F7FFBF8BBB23744DD4C72DFC772730B96127F7E8B05EFD194EBDB05592 PUSH1 0x0 SHL PUSH2 0x1887 JUMP JUMPDEST PUSH2 0x1656 PUSH32 0x44C23DD27160BB4955145E3D5B2292873F03A5D850F7C16A372136D09E370204 PUSH1 0x0 SHL PUSH2 0x1887 JUMP JUMPDEST PUSH1 0x1 SWAP1 POP SWAP3 SWAP2 POP POP JUMP JUMPDEST PUSH1 0x4 DUP1 SLOAD PUSH2 0x166D SWAP1 PUSH2 0x2781 JUMP JUMPDEST DUP1 PUSH1 0x1F ADD PUSH1 0x20 DUP1 SWAP2 DIV MUL PUSH1 0x20 ADD PUSH1 0x40 MLOAD SWAP1 DUP2 ADD PUSH1 0x40 MSTORE DUP1 SWAP3 SWAP2 SWAP1 DUP2 DUP2 MSTORE PUSH1 0x20 ADD DUP3 DUP1 SLOAD PUSH2 0x1699 SWAP1 PUSH2 0x2781 JUMP JUMPDEST DUP1 ISZERO PUSH2 0x16E6 JUMPI DUP1 PUSH1 0x1F LT PUSH2 0x16BB JUMPI PUSH2 0x100 DUP1 DUP4 SLOAD DIV MUL DUP4 MSTORE SWAP2 PUSH1 0x20 ADD SWAP2 PUSH2 0x16E6 JUMP JUMPDEST DUP3 ADD SWAP2 SWAP1 PUSH1 0x0 MSTORE PUSH1 0x20 PUSH1 0x0 KECCAK256 SWAP1 JUMPDEST DUP2 SLOAD DUP2 MSTORE SWAP1 PUSH1 0x1 ADD SWAP1 PUSH1 0x20 ADD DUP1 DUP4 GT PUSH2 0x16C9 JUMPI DUP3 SWAP1 SUB PUSH1 0x1F AND DUP3 ADD SWAP2 JUMPDEST POP POP POP POP POP DUP2 JUMP JUMPDEST PUSH1 0x3 DUP1 SLOAD PUSH2 0x16FB SWAP1 PUSH2 0x2781 JUMP JUMPDEST DUP1 PUSH1 0x1F ADD PUSH1 0x20 DUP1 SWAP2 DIV MUL PUSH1 0x20 ADD PUSH1 0x40 MLOAD SWAP1 DUP2 ADD PUSH1 0x40 MSTORE DUP1 SWAP3 SWAP2 SWAP1 DUP2 DUP2 MSTORE PUSH1 0x20 ADD DUP3 DUP1 SLOAD PUSH2 0x1727 SWAP1 PUSH2 0x2781 JUMP JUMPDEST DUP1 ISZERO PUSH2 0x1774 JUMPI DUP1 PUSH1 0x1F LT PUSH2 0x1749 JUMPI PUSH2 0x100 DUP1 DUP4 SLOAD DIV MUL DUP4 MSTORE SWAP2 PUSH1 0x20 ADD SWAP2 PUSH2 0x1774 JUMP JUMPDEST DUP3 ADD SWAP2 SWAP1 PUSH1 0x0 MSTORE PUSH1 0x20 PUSH1 0x0 KECCAK256 SWAP1 JUMPDEST DUP2 SLOAD DUP2 MSTORE SWAP1 PUSH1 0x1 ADD SWAP1 PUSH1 0x20 ADD DUP1 DUP4 GT PUSH2 0x1757 JUMPI DUP3 SWAP1 SUB PUSH1 0x1F AND DUP3 ADD SWAP2 JUMPDEST POP POP POP POP POP DUP2 JUMP JUMPDEST PUSH1 0x0 PUSH2 0x17AA PUSH32 0x9FB0D04692DA1A546746E785617D4517496F247925F99F4B5F2660D28E7A190A PUSH1 0x0 SHL PUSH2 0x1887 JUMP JUMPDEST PUSH2 0x17D6 PUSH32 0x4020AA70C606FFC749448BF164C4040162B1B2844538AF537CAF3149E56B4F3B PUSH1 0x0 SHL PUSH2 0x1887 JUMP JUMPDEST PUSH2 0x1802 PUSH32 0x47166DDD6B46F117DE54059CDF9C206DE861F6ADD093335D6741010DD402F393 PUSH1 0x0 SHL PUSH2 0x1887 JUMP JUMPDEST PUSH1 0x2 PUSH1 0x0 DUP5 PUSH20 0xFFFFFFFFFFFFFFFFFFFFFFFFFFFFFFFFFFFFFFFF AND PUSH20 0xFFFFFFFFFFFFFFFFFFFFFFFFFFFFFFFFFFFFFFFF AND DUP2 MSTORE PUSH1 0x20 ADD SWAP1 DUP2 MSTORE PUSH1 0x20 ADD PUSH1 0x0 KECCAK256 PUSH1 0x0 DUP4 PUSH20 0xFFFFFFFFFFFFFFFFFFFFFFFFFFFFFFFFFFFFFFFF AND PUSH20 0xFFFFFFFFFFFFFFFFFFFFFFFFFFFFFFFFFFFFFFFF AND DUP2 MSTORE PUSH1 0x20 ADD SWAP1 DUP2 MSTORE PUSH1 0x20 ADD PUSH1 0x0 KECCAK256 SLOAD SWAP1 POP SWAP3 SWAP2 POP POP JUMP JUMPDEST POP JUMP JUMPDEST PUSH2 0x18B6 PUSH32 0x7DD666147D7C14A6FD19BB8B16F374BF6080D5A23BD04825B1B229DF406C51B0 PUSH1 0x0 SHL PUSH2 0x1887 JUMP JUMPDEST PUSH2 0x18E2 PUSH32 0xAA62361D88DBC435A1874F0FCB40824A3C1B5D75CC18A8D260B6358401B9AE5E PUSH1 0x0 SHL PUSH2 0x1887 JUMP JUMPDEST PUSH2 0x190E PUSH32 0x50492AC67ED3172B2276D5EA183DF0A460CCD6D7E9A402CA667A8CFF270A30EF PUSH1 0x0 SHL PUSH2 0x1887 JUMP JUMPDEST PUSH2 0x1939 PUSH31 0xB13B849E310D32F55284F153D7A540F784E0CD19C0C676407804421C9DAD7D PUSH1 0x0 SHL PUSH2 0x1887 JUMP JUMPDEST PUSH1 0x0 PUSH20 0xFFFFFFFFFFFFFFFFFFFFFFFFFFFFFFFFFFFFFFFF AND DUP3 PUSH20 0xFFFFFFFFFFFFFFFFFFFFFFFFFFFFFFFFFFFFFFFF AND EQ ISZERO PUSH2 0x19A9 JUMPI PUSH1 0x40 MLOAD PUSH32 0x8C379A000000000000000000000000000000000000000000000000000000000 DUP2 MSTORE PUSH1 0x4 ADD PUSH2 0x19A0 SWAP1 PUSH2 0x25BD JUMP JUMPDEST PUSH1 0x40 MLOAD DUP1 SWAP2 SUB SWAP1 REVERT JUMPDEST PUSH2 0x19D5 PUSH32 0x584BE29E9091C38363423892465CC65CBD9862B1088A40CB73D52C0A52D83747 PUSH1 0x0 SHL PUSH2 0x1887 JUMP JUMPDEST PUSH2 0x1A01 PUSH32 0xB8CD81152D7AED4256336E3010DDF9CFA32B3359CF0A503224F312BC1CF6ED40 PUSH1 0x0 SHL PUSH2 0x1887 JUMP JUMPDEST PUSH2 0x1A2D PUSH32 0xEA76E508A798FFC2ADB55D0C16F1F228618670F3B577CF2825C1FAB8F0CC5E65 PUSH1 0x0 SHL PUSH2 0x1887 JUMP JUMPDEST DUP1 PUSH1 0x2 PUSH1 0x0 DUP6 PUSH20 0xFFFFFFFFFFFFFFFFFFFFFFFFFFFFFFFFFFFFFFFF AND PUSH20 0xFFFFFFFFFFFFFFFFFFFFFFFFFFFFFFFFFFFFFFFF AND DUP2 MSTORE PUSH1 0x20 ADD SWAP1 DUP2 MSTORE PUSH1 0x20 ADD PUSH1 0x0 KECCAK256 PUSH1 0x0 DUP5 PUSH20 0xFFFFFFFFFFFFFFFFFFFFFFFFFFFFFFFFFFFFFFFF AND PUSH20 0xFFFFFFFFFFFFFFFFFFFFFFFFFFFFFFFFFFFFFFFF AND DUP2 MSTORE PUSH1 0x20 ADD SWAP1 DUP2 MSTORE PUSH1 0x20 ADD PUSH1 0x0 KECCAK256 DUP2 SWAP1 SSTORE POP PUSH2 0x1ADA PUSH32 0x62E9BD9D64E401BEB5F400E8DFE993FD2EC4DFFF41DBD97E540A6C34F900BAAC PUSH1 0x0 SHL PUSH2 0x1887 JUMP JUMPDEST PUSH2 0x1B06 PUSH32 0x334F537E574BFDA0FCA8C13F4138B26F102FEFDA4439A4B5E7DD54DC700961A PUSH1 0x0 SHL PUSH2 0x1887 JUMP JUMPDEST DUP2 PUSH20 0xFFFFFFFFFFFFFFFFFFFFFFFFFFFFFFFFFFFFFFFF AND DUP4 PUSH20 0xFFFFFFFFFFFFFFFFFFFFFFFFFFFFFFFFFFFFFFFF AND PUSH32 0x8C5BE1E5EBEC7D5BD14F71427D1E84F3DD0314C0F7B2291E5B200AC8C7C3B925 DUP4 PUSH1 0x40 MLOAD PUSH2 0x1B63 SWAP2 SWAP1 PUSH2 0x261D JUMP JUMPDEST PUSH1 0x40 MLOAD DUP1 SWAP2 SUB SWAP1 LOG3 POP POP POP JUMP JUMPDEST PUSH2 0x1B9C PUSH32 0xAA5C81D0181B50BEE95D01C4DC9C0513DE0AA313E2A1B3E59C1A1C438E523B63 PUSH1 0x0 SHL PUSH2 0x1887 JUMP JUMPDEST PUSH2 0x1BC8 PUSH32 0xB90EF3575E21D40A4D408606DB5EFA74266EFD341293E0FF2A6A781E42F356C4 PUSH1 0x0 SHL PUSH2 0x1887 JUMP JUMPDEST PUSH2 0x1BF4 PUSH32 0x9B508B29D7C004B7962CDEF97BF6B616FFA43BBA72C2732790125E5E3D975EF1 PUSH1 0x0 SHL PUSH2 0x1887 JUMP JUMPDEST PUSH1 0x0 PUSH2 0x1C00 DUP5 DUP5 PUSH2 0x177C JUMP JUMPDEST SWAP1 POP PUSH2 0x1C2E PUSH32 0x77EBF22EBBD8D83B2B3D23A5F834C7DCAD1158E56E75A46929A6626294334C73 PUSH1 0x0 SHL PUSH2 0x1887 JUMP JUMPDEST PUSH2 0x1C5A PUSH32 0x16E224C815BF1DE8A33C7B6F14EAFE91736997E55E86990E0AED95E199F588F5 PUSH1 0x0 SHL PUSH2 0x1887 JUMP JUMPDEST PUSH2 0x1C86 PUSH32 0x91F86099DDA9437302063964D3BA895B20A6CF34D6A7EB07C8C360BC88DD31B0 PUSH1 0x0 SHL PUSH2 0x1887 JUMP JUMPDEST DUP1 DUP3 GT ISZERO PUSH2 0x1CC9 JUMPI PUSH1 0x40 MLOAD PUSH32 0x8C379A000000000000000000000000000000000000000000000000000000000 DUP2 MSTORE PUSH1 0x4 ADD PUSH2 0x1CC0 SWAP1 PUSH2 0x25DD JUMP JUMPDEST PUSH1 0x40 MLOAD DUP1 SWAP2 SUB SWAP1 REVERT JUMPDEST PUSH2 0x1CF5 PUSH32 0xA50AC46D6948A95B451907BF671D86BFA64DC4DA3E8E4AD3F9A6567F9A102418 PUSH1 0x0 SHL PUSH2 0x1887 JUMP JUMPDEST PUSH2 0x1D21 PUSH32 0x44519D869DE6629D55119E1D79252F5772BCC211233E1CF227A1E801384735EC PUSH1 0x0 SHL PUSH2 0x1887 JUMP JUMPDEST PUSH2 0x1D4D PUSH32 0x9341EAEB3EA42D27F1A0B4C64608EB8711206BD8CC8150BE3E515114CFD56B0 PUSH1 0x0 SHL PUSH2 0x1887 JUMP JUMPDEST PUSH2 0x1D63 DUP5 DUP5 DUP5 DUP5 PUSH2 0x1D5E SWAP2 SWAP1 PUSH2 0x26C5 JUMP JUMPDEST PUSH2 0x188A JUMP JUMPDEST POP POP POP POP JUMP JUMPDEST PUSH2 0x1D95 PUSH32 0x713F7AE6DE75331C61ADD69209DEFF162C0AF68845CDC6F86677E20545E45BFB PUSH1 0x0 SHL PUSH2 0x1887 JUMP JUMPDEST PUSH2 0x1DC1 PUSH32 0x567CC10B1941FD4BD0F9D1D939DEE677BFD30629F9C6D76C0FB5F31927A92907 PUSH1 0x0 SHL PUSH2 0x1887 JUMP JUMPDEST PUSH2 0x1DED PUSH32 0x2D1D1D35C4AA7B8F70D9A15BF621F39117444C974EAEDFB1F633C3271CEC002F PUSH1 0x0 SHL PUSH2 0x1887 JUMP JUMPDEST PUSH2 0x1E19 PUSH32 0x3953515002CE6E911BEA34E46442B7678CB89D926B125C94327380C01942EA2A PUSH1 0x0 SHL PUSH2 0x1887 JUMP JUMPDEST PUSH1 0x0 PUSH20 0xFFFFFFFFFFFFFFFFFFFFFFFFFFFFFFFFFFFFFFFF AND DUP3 PUSH20 0xFFFFFFFFFFFFFFFFFFFFFFFFFFFFFFFFFFFFFFFF AND EQ ISZERO PUSH2 0x1E89 JUMPI PUSH1 0x40 MLOAD PUSH32 0x8C379A000000000000000000000000000000000000000000000000000000000 DUP2 MSTORE PUSH1 0x4 ADD PUSH2 0x1E80 SWAP1 PUSH2 0x25FD JUMP JUMPDEST PUSH1 0x40 MLOAD DUP1 SWAP2 SUB SWAP1 REVERT JUMPDEST PUSH2 0x1EB5 PUSH32 0x2391FE80E1D56D5E0EDC843CB302E5AEEE77A76CDE5977E7F6489DBDF8AEE786 PUSH1 0x0 SHL PUSH2 0x1887 JUMP JUMPDEST PUSH2 0x1EE1 PUSH32 0xE2C9B43AE52D6500347C94530A6B588D6F0E05F1D78248C7B9B8680159499482 PUSH1 0x0 SHL PUSH2 0x1887 JUMP JUMPDEST PUSH2 0x1F0D PUSH32 0xA8ADB64723BEC2F83F8D1162D25C74CEC5C0952B02AA0D5C30A4300014D19B31 PUSH1 0x0 SHL PUSH2 0x1887 JUMP JUMPDEST PUSH2 0x1F39 PUSH32 0xB0CE45C30F6F027E325824B0FAAF9AB1EE0D5158ACD51E4C461C5234292E92DA PUSH1 0x0 SHL PUSH2 0x1887 JUMP JUMPDEST PUSH1 0x1 PUSH1 0x0 DUP5 PUSH20 0xFFFFFFFFFFFFFFFFFFFFFFFFFFFFFFFFFFFFFFFF AND PUSH20 0xFFFFFFFFFFFFFFFFFFFFFFFFFFFFFFFFFFFFFFFF AND DUP2 MSTORE PUSH1 0x20 ADD SWAP1 DUP2 MSTORE PUSH1 0x20 ADD PUSH1 0x0 KECCAK256 SLOAD DUP2 GT ISZERO PUSH2 0x1FBB JUMPI PUSH1 0x40 MLOAD PUSH32 0x8C379A000000000000000000000000000000000000000000000000000000000 DUP2 MSTORE PUSH1 0x4 ADD PUSH2 0x1FB2 SWAP1 PUSH2 0x24FD JUMP JUMPDEST PUSH1 0x40 MLOAD DUP1 SWAP2 SUB SWAP1 REVERT JUMPDEST PUSH2 0x1FE7 PUSH32 0x9AFFB590C066CC9EAD92268837C2BA43DF453C2E9E2AAAF51485D1DB3C602ED3 PUSH1 0x0 SHL PUSH2 0x1887 JUMP JUMPDEST PUSH2 0x2013 PUSH32 0x71ABD23201867EA63930E3033714AD7EBC5E2C1B65187DB2F76D6A29C7725AAE PUSH1 0x0 SHL PUSH2 0x1887 JUMP JUMPDEST PUSH2 0x203F PUSH32 0x505AF44E74253E8C39DDEB8C4F35C4F18385B0A2AE7D8D4EBC61A8CD55D52735 PUSH1 0x0 SHL PUSH2 0x1887 JUMP JUMPDEST DUP1 PUSH1 0x1 PUSH1 0x0 DUP6 PUSH20 0xFFFFFFFFFFFFFFFFFFFFFFFFFFFFFFFFFFFFFFFF AND PUSH20 0xFFFFFFFFFFFFFFFFFFFFFFFFFFFFFFFFFFFFFFFF AND DUP2 MSTORE PUSH1 0x20 ADD SWAP1 DUP2 MSTORE PUSH1 0x20 ADD PUSH1 0x0 KECCAK256 PUSH1 0x0 DUP3 DUP3 SLOAD PUSH2 0x208E SWAP2 SWAP1 PUSH2 0x26C5 JUMP JUMPDEST SWAP3 POP POP DUP2 SWAP1 SSTORE POP PUSH2 0x20C1 PUSH32 0x1F69CFAF2E94E31E2871946FCE74AD76EB9D9D463622C38330335F4413E9B7B PUSH1 0x0 SHL PUSH2 0x1887 JUMP JUMPDEST PUSH2 0x20ED PUSH32 0xD3F76DA32BF2DD0BFE52AD650DB92945CF47B744165270A878E58A9B16B298B0 PUSH1 0x0 SHL PUSH2 0x1887 JUMP JUMPDEST DUP1 PUSH1 0x1 PUSH1 0x0 DUP5 PUSH20 0xFFFFFFFFFFFFFFFFFFFFFFFFFFFFFFFFFFFFFFFF AND PUSH20 0xFFFFFFFFFFFFFFFFFFFFFFFFFFFFFFFFFFFFFFFF AND DUP2 MSTORE PUSH1 0x20 ADD SWAP1 DUP2 MSTORE PUSH1 0x20 ADD PUSH1 0x0 KECCAK256 PUSH1 0x0 DUP3 DUP3 SLOAD PUSH2 0x213C SWAP2 SWAP1 PUSH2 0x266F JUMP JUMPDEST SWAP3 POP POP DUP2 SWAP1 SSTORE POP PUSH2 0x216F PUSH32 0xD2CC57F00443755339D0F2FB575F4DA79F5F12AAC5AA9E4A8574992CA6165215 PUSH1 0x0 SHL PUSH2 0x1887 JUMP JUMPDEST PUSH2 0x219B PUSH32 0x127D003FF653DCF45C86DE5A9073AFE6E0A15C18485F4CDE520188D9F46CAD4E PUSH1 0x0 SHL PUSH2 0x1887 JUMP JUMPDEST DUP2 PUSH20 0xFFFFFFFFFFFFFFFFFFFFFFFFFFFFFFFFFFFFFFFF AND DUP4 PUSH20 0xFFFFFFFFFFFFFFFFFFFFFFFFFFFFFFFFFFFFFFFF AND PUSH32 0xDDF252AD1BE2C89B69C2B068FC378DAA952BA7F163C4A11628F55A4DF523B3EF DUP4 PUSH1 0x40 MLOAD PUSH2 0x21F8 SWAP2 SWAP1 PUSH2 0x261D JUMP JUMPDEST PUSH1 0x40 MLOAD DUP1 SWAP2 SUB SWAP1 LOG3 POP POP POP JUMP JUMPDEST PUSH1 0x0 DUP2 CALLDATALOAD SWAP1 POP PUSH2 0x2214 DUP2 PUSH2 0x2A05 JUMP JUMPDEST SWAP3 SWAP2 POP POP JUMP JUMPDEST PUSH1 0x0 DUP2 CALLDATALOAD SWAP1 POP PUSH2 0x2229 DUP2 PUSH2 0x2A1C JUMP JUMPDEST SWAP3 SWAP2 POP POP JUMP JUMPDEST PUSH1 0x0 PUSH1 0x20 DUP3 DUP5 SUB SLT ISZERO PUSH2 0x2241 JUMPI PUSH1 0x0 DUP1 REVERT JUMPDEST PUSH1 0x0 PUSH2 0x224F DUP5 DUP3 DUP6 ADD PUSH2 0x2205 JUMP JUMPDEST SWAP2 POP POP SWAP3 SWAP2 POP POP JUMP JUMPDEST PUSH1 0x0 DUP1 PUSH1 0x40 DUP4 DUP6 SUB SLT ISZERO PUSH2 0x226B JUMPI PUSH1 0x0 DUP1 REVERT JUMPDEST PUSH1 0x0 PUSH2 0x2279 DUP6 DUP3 DUP7 ADD PUSH2 0x2205 JUMP JUMPDEST SWAP3 POP POP PUSH1 0x20 PUSH2 0x228A DUP6 DUP3 DUP7 ADD PUSH2 0x2205 JUMP JUMPDEST SWAP2 POP POP SWAP3 POP SWAP3 SWAP1 POP JUMP JUMPDEST PUSH1 0x0 DUP1 PUSH1 0x0 PUSH1 0x60 DUP5 DUP7 SUB SLT ISZERO PUSH2 0x22A9 JUMPI PUSH1 0x0 DUP1 REVERT JUMPDEST PUSH1 0x0 PUSH2 0x22B7 DUP7 DUP3 DUP8 ADD PUSH2 0x2205 JUMP JUMPDEST SWAP4 POP POP PUSH1 0x20 PUSH2 0x22C8 DUP7 DUP3 DUP8 ADD PUSH2 0x2205 JUMP JUMPDEST SWAP3 POP POP PUSH1 0x40 PUSH2 0x22D9 DUP7 DUP3 DUP8 ADD PUSH2 0x221A JUMP JUMPDEST SWAP2 POP POP SWAP3 POP SWAP3 POP SWAP3 JUMP JUMPDEST PUSH1 0x0 DUP1 PUSH1 0x40 DUP4 DUP6 SUB SLT ISZERO PUSH2 0x22F6 JUMPI PUSH1 0x0 DUP1 REVERT JUMPDEST PUSH1 0x0 PUSH2 0x2304 DUP6 DUP3 DUP7 ADD PUSH2 0x2205 JUMP JUMPDEST SWAP3 POP POP PUSH1 0x20 PUSH2 0x2315 DUP6 DUP3 DUP7 ADD PUSH2 0x221A JUMP JUMPDEST SWAP2 POP POP SWAP3 POP SWAP3 SWAP1 POP JUMP JUMPDEST PUSH2 0x2328 DUP2 PUSH2 0x270B JUMP JUMPDEST DUP3 MSTORE POP POP JUMP JUMPDEST PUSH1 0x0 PUSH2 0x2339 DUP3 PUSH2 0x2653 JUMP JUMPDEST PUSH2 0x2343 DUP2 DUP6 PUSH2 0x265E JUMP JUMPDEST SWAP4 POP PUSH2 0x2353 DUP2 DUP6 PUSH1 0x20 DUP7 ADD PUSH2 0x274E JUMP JUMPDEST PUSH2 0x235C DUP2 PUSH2 0x2811 JUMP JUMPDEST DUP5 ADD SWAP2 POP POP SWAP3 SWAP2 POP POP JUMP JUMPDEST PUSH1 0x0 PUSH2 0x2374 PUSH1 0x1E DUP4 PUSH2 0x265E JUMP JUMPDEST SWAP2 POP PUSH2 0x237F DUP3 PUSH2 0x2822 JUMP JUMPDEST PUSH1 0x20 DUP3 ADD SWAP1 POP SWAP2 SWAP1 POP JUMP JUMPDEST PUSH1 0x0 PUSH2 0x2397 PUSH1 0x15 DUP4 PUSH2 0x265E JUMP JUMPDEST SWAP2 POP PUSH2 0x23A2 DUP3 PUSH2 0x284B JUMP JUMPDEST PUSH1 0x20 DUP3 ADD SWAP1 POP SWAP2 SWAP1 POP JUMP JUMPDEST PUSH1 0x0 PUSH2 0x23BA PUSH1 0x1B DUP4 PUSH2 0x265E JUMP JUMPDEST SWAP2 POP PUSH2 0x23C5 DUP3 PUSH2 0x2874 JUMP JUMPDEST PUSH1 0x20 DUP3 ADD SWAP1 POP SWAP2 SWAP1 POP JUMP JUMPDEST PUSH1 0x0 PUSH2 0x23DD PUSH1 0x19 DUP4 PUSH2 0x265E JUMP JUMPDEST SWAP2 POP PUSH2 0x23E8 DUP3 PUSH2 0x289D JUMP JUMPDEST PUSH1 0x20 DUP3 ADD SWAP1 POP SWAP2 SWAP1 POP JUMP JUMPDEST PUSH1 0x0 PUSH2 0x2400 PUSH1 0x14 DUP4 PUSH2 0x265E JUMP JUMPDEST SWAP2 POP PUSH2 0x240B DUP3 PUSH2 0x28C6 JUMP JUMPDEST PUSH1 0x20 DUP3 ADD SWAP1 POP SWAP2 SWAP1 POP JUMP JUMPDEST PUSH1 0x0 PUSH2 0x2423 PUSH1 0x25 DUP4 PUSH2 0x265E JUMP JUMPDEST SWAP2 POP PUSH2 0x242E DUP3 PUSH2 0x28EF JUMP JUMPDEST PUSH1 0x40 DUP3 ADD SWAP1 POP SWAP2 SWAP1 POP JUMP JUMPDEST PUSH1 0x0 PUSH2 0x2446 PUSH1 0x22 DUP4 PUSH2 0x265E JUMP JUMPDEST SWAP2 POP PUSH2 0x2451 DUP3 PUSH2 0x293E JUMP JUMPDEST PUSH1 0x40 DUP3 ADD SWAP1 POP SWAP2 SWAP1 POP JUMP JUMPDEST PUSH1 0x0 PUSH2 0x2469 PUSH1 0x1D DUP4 PUSH2 0x265E JUMP JUMPDEST SWAP2 POP PUSH2 0x2474 DUP3 PUSH2 0x298D JUMP JUMPDEST PUSH1 0x20 DUP3 ADD SWAP1 POP SWAP2 SWAP1 POP JUMP JUMPDEST PUSH1 0x0 PUSH2 0x248C PUSH1 0x23 DUP4 PUSH2 0x265E JUMP JUMPDEST SWAP2 POP PUSH2 0x2497 DUP3 PUSH2 0x29B6 JUMP JUMPDEST PUSH1 0x40 DUP3 ADD SWAP1 POP SWAP2 SWAP1 POP JUMP JUMPDEST PUSH2 0x24AB DUP2 PUSH2 0x2737 JUMP JUMPDEST DUP3 MSTORE POP POP JUMP JUMPDEST PUSH2 0x24BA DUP2 PUSH2 0x2741 JUMP JUMPDEST DUP3 MSTORE POP POP JUMP JUMPDEST PUSH1 0x0 PUSH1 0x20 DUP3 ADD SWAP1 POP PUSH2 0x24D5 PUSH1 0x0 DUP4 ADD DUP5 PUSH2 0x231F JUMP JUMPDEST SWAP3 SWAP2 POP POP JUMP JUMPDEST PUSH1 0x0 PUSH1 0x20 DUP3 ADD SWAP1 POP DUP2 DUP2 SUB PUSH1 0x0 DUP4 ADD MSTORE PUSH2 0x24F5 DUP2 DUP5 PUSH2 0x232E JUMP JUMPDEST SWAP1 POP SWAP3 SWAP2 POP POP JUMP JUMPDEST PUSH1 0x0 PUSH1 0x20 DUP3 ADD SWAP1 POP DUP2 DUP2 SUB PUSH1 0x0 DUP4 ADD MSTORE PUSH2 0x2516 DUP2 PUSH2 0x2367 JUMP JUMPDEST SWAP1 POP SWAP2 SWAP1 POP JUMP JUMPDEST PUSH1 0x0 PUSH1 0x20 DUP3 ADD SWAP1 POP DUP2 DUP2 SUB PUSH1 0x0 DUP4 ADD MSTORE PUSH2 0x2536 DUP2 PUSH2 0x238A JUMP JUMPDEST SWAP1 POP SWAP2 SWAP1 POP JUMP JUMPDEST PUSH1 0x0 PUSH1 0x20 DUP3 ADD SWAP1 POP DUP2 DUP2 SUB PUSH1 0x0 DUP4 ADD MSTORE PUSH2 0x2556 DUP2 PUSH2 0x23AD JUMP JUMPDEST SWAP1 POP SWAP2 SWAP1 POP JUMP JUMPDEST PUSH1 0x0 PUSH1 0x20 DUP3 ADD SWAP1 POP DUP2 DUP2 SUB PUSH1 0x0 DUP4 ADD MSTORE PUSH2 0x2576 DUP2 PUSH2 0x23D0 JUMP JUMPDEST SWAP1 POP SWAP2 SWAP1 POP JUMP JUMPDEST PUSH1 0x0 PUSH1 0x20 DUP3 ADD SWAP1 POP DUP2 DUP2 SUB PUSH1 0x0 DUP4 ADD MSTORE PUSH2 0x2596 DUP2 PUSH2 0x23F3 JUMP JUMPDEST SWAP1 POP SWAP2 SWAP1 POP JUMP JUMPDEST PUSH1 0x0 PUSH1 0x20 DUP3 ADD SWAP1 POP DUP2 DUP2 SUB PUSH1 0x0 DUP4 ADD MSTORE PUSH2 0x25B6 DUP2 PUSH2 0x2416 JUMP JUMPDEST SWAP1 POP SWAP2 SWAP1 POP JUMP JUMPDEST PUSH1 0x0 PUSH1 0x20 DUP3 ADD SWAP1 POP DUP2 DUP2 SUB PUSH1 0x0 DUP4 ADD MSTORE PUSH2 0x25D6 DUP2 PUSH2 0x2439 JUMP JUMPDEST SWAP1 POP SWAP2 SWAP1 POP JUMP JUMPDEST PUSH1 0x0 PUSH1 0x20 DUP3 ADD SWAP1 POP DUP2 DUP2 SUB PUSH1 0x0 DUP4 ADD MSTORE PUSH2 0x25F6 DUP2 PUSH2 0x245C JUMP JUMPDEST SWAP1 POP SWAP2 SWAP1 POP JUMP JUMPDEST PUSH1 0x0 PUSH1 0x20 DUP3 ADD SWAP1 POP DUP2 DUP2 SUB PUSH1 0x0 DUP4 ADD MSTORE PUSH2 0x2616 DUP2 PUSH2 0x247F JUMP JUMPDEST SWAP1 POP SWAP2 SWAP1 POP JUMP JUMPDEST PUSH1 0x0 PUSH1 0x20 DUP3 ADD SWAP1 POP PUSH2 0x2632 PUSH1 0x0 DUP4 ADD DUP5 PUSH2 0x24A2 JUMP JUMPDEST SWAP3 SWAP2 POP POP JUMP JUMPDEST PUSH1 0x0 PUSH1 0x20 DUP3 ADD SWAP1 POP PUSH2 0x264D PUSH1 0x0 DUP4 ADD DUP5 PUSH2 0x24B1 JUMP JUMPDEST SWAP3 SWAP2 POP POP JUMP JUMPDEST PUSH1 0x0 DUP2 MLOAD SWAP1 POP SWAP2 SWAP1 POP JUMP JUMPDEST PUSH1 0x0 DUP3 DUP3 MSTORE PUSH1 0x20 DUP3 ADD SWAP1 POP SWAP3 SWAP2 POP POP JUMP JUMPDEST PUSH1 0x0 PUSH2 0x267A DUP3 PUSH2 0x2737 JUMP JUMPDEST SWAP2 POP PUSH2 0x2685 DUP4 PUSH2 0x2737 JUMP JUMPDEST SWAP3 POP DUP3 PUSH32 0xFFFFFFFFFFFFFFFFFFFFFFFFFFFFFFFFFFFFFFFFFFFFFFFFFFFFFFFFFFFFFFFF SUB DUP3 GT ISZERO PUSH2 0x26BA JUMPI PUSH2 0x26B9 PUSH2 0x27B3 JUMP JUMPDEST JUMPDEST DUP3 DUP3 ADD SWAP1 POP SWAP3 SWAP2 POP POP JUMP JUMPDEST PUSH1 0x0 PUSH2 0x26D0 DUP3 PUSH2 0x2737 JUMP JUMPDEST SWAP2 POP PUSH2 0x26DB DUP4 PUSH2 0x2737 JUMP JUMPDEST SWAP3 POP DUP3 DUP3 LT ISZERO PUSH2 0x26EE JUMPI PUSH2 0x26ED PUSH2 0x27B3 JUMP JUMPDEST JUMPDEST DUP3 DUP3 SUB SWAP1 POP SWAP3 SWAP2 POP POP JUMP JUMPDEST PUSH1 0x0 PUSH2 0x2704 DUP3 PUSH2 0x2717 JUMP JUMPDEST SWAP1 POP SWAP2 SWAP1 POP JUMP JUMPDEST PUSH1 0x0 DUP2 ISZERO ISZERO SWAP1 POP SWAP2 SWAP1 POP JUMP JUMPDEST PUSH1 0x0 PUSH20 0xFFFFFFFFFFFFFFFFFFFFFFFFFFFFFFFFFFFFFFFF DUP3 AND SWAP1 POP SWAP2 SWAP1 POP JUMP JUMPDEST PUSH1 0x0 DUP2 SWAP1 POP SWAP2 SWAP1 POP JUMP JUMPDEST PUSH1 0x0 PUSH1 0xFF DUP3 AND SWAP1 POP SWAP2 SWAP1 POP JUMP JUMPDEST PUSH1 0x0 JUMPDEST DUP4 DUP2 LT ISZERO PUSH2 0x276C JUMPI DUP1 DUP3 ADD MLOAD DUP2 DUP5 ADD MSTORE PUSH1 0x20 DUP2 ADD SWAP1 POP PUSH2 0x2751 JUMP JUMPDEST DUP4 DUP2 GT ISZERO PUSH2 0x277B JUMPI PUSH1 0x0 DUP5 DUP5 ADD MSTORE JUMPDEST POP POP POP POP JUMP JUMPDEST PUSH1 0x0 PUSH1 0x2 DUP3 DIV SWAP1 POP PUSH1 0x1 DUP3 AND DUP1 PUSH2 0x2799 JUMPI PUSH1 0x7F DUP3 AND SWAP2 POP JUMPDEST PUSH1 0x20 DUP3 LT DUP2 EQ ISZERO PUSH2 0x27AD JUMPI PUSH2 0x27AC PUSH2 0x27E2 JUMP JUMPDEST JUMPDEST POP SWAP2 SWAP1 POP JUMP JUMPDEST PUSH32 0x4E487B7100000000000000000000000000000000000000000000000000000000 PUSH1 0x0 MSTORE PUSH1 0x11 PUSH1 0x4 MSTORE PUSH1 0x24 PUSH1 0x0 REVERT JUMPDEST PUSH32 0x4E487B7100000000000000000000000000000000000000000000000000000000 PUSH1 0x0 MSTORE PUSH1 0x22 PUSH1 0x4 MSTORE PUSH1 0x24 PUSH1 0x0 REVERT JUMPDEST PUSH1 0x0 PUSH1 0x1F NOT PUSH1 0x1F DUP4 ADD AND SWAP1 POP SWAP2 SWAP1 POP JUMP JUMPDEST PUSH32 0x43616E6E6F74207472616E73666572206F7574206F662062616C616E63650000 PUSH1 0x0 DUP3 ADD MSTORE POP JUMP JUMPDEST PUSH32 0x416D6F756E74206F7574206F662062616C616E63650000000000000000000000 PUSH1 0x0 DUP3 ADD MSTORE POP JUMP JUMPDEST PUSH32 0x43616E74206275726E2066726F6D207A65726F20616464726573730000000000 PUSH1 0x0 DUP3 ADD MSTORE POP JUMP JUMPDEST PUSH32 0x43616E74206D696E7420746F207A65726F206164647265737300000000000000 PUSH1 0x0 DUP3 ADD MSTORE POP JUMP JUMPDEST PUSH32 0x596F7520617265206E6F7420616E206F776E6572000000000000000000000000 PUSH1 0x0 DUP3 ADD MSTORE POP JUMP JUMPDEST PUSH32 0x43616E6E6F74207472616E736665722066726F6D20746865206E756C6C206164 PUSH1 0x0 DUP3 ADD MSTORE PUSH32 0x6472657373000000000000000000000000000000000000000000000000000000 PUSH1 0x20 DUP3 ADD MSTORE POP JUMP JUMPDEST PUSH32 0x43616E6E6F7420617070726F766520746F20746865206E756C6C206164647265 PUSH1 0x0 DUP3 ADD MSTORE PUSH32 0x7373000000000000000000000000000000000000000000000000000000000000 PUSH1 0x20 DUP3 ADD MSTORE POP JUMP JUMPDEST PUSH32 0x43616E6E6F74207370656E64206F7574206F6620616C6C6F77616E6365000000 PUSH1 0x0 DUP3 ADD MSTORE POP JUMP JUMPDEST PUSH32 0x43616E6E6F74207472616E7366657220746F20746865206E756C6C2061646472 PUSH1 0x0 DUP3 ADD MSTORE PUSH32 0x6573730000000000000000000000000000000000000000000000000000000000 PUSH1 0x20 DUP3 ADD MSTORE POP JUMP JUMPDEST PUSH2 0x2A0E DUP2 PUSH2 0x26F9 JUMP JUMPDEST DUP2 EQ PUSH2 0x2A19 JUMPI PUSH1 0x0 DUP1 REVERT JUMPDEST POP JUMP JUMPDEST PUSH2 0x2A25 DUP2 PUSH2 0x2737 JUMP JUMPDEST DUP2 EQ PUSH2 0x2A30 JUMPI PUSH1 0x0 DUP1 REVERT JUMPDEST POP JUMP INVALID LOG2 PUSH5 0x6970667358 0x22 SLT KECCAK256 CALLDATACOPY DUP1 SLOAD 0xC7 SWAP14 PUSH32 0xFC7D1BA08BB7A779D3F3BB98B316D7729E5F6658B4BC689ED12464736F6C6343 STOP ADDMOD DIV STOP CALLER "
        },
        "methodIdentifiers": {
          "_decimals()": "32424aa3",
          "_name()": "d28d8852",
          "_symbol()": "b09f1266",
          "_totalSupply()": "3eaaf86b",
          "allowance(address,address)": "dd62ed3e",
          "approve(address,uint256)": "095ea7b3",
          "balanceOf(address)": "70a08231",
          "burn(address,uint256)": "9dc29fac",
          "decimals()": "313ce567",
          "mint(address,uint256)": "40c10f19",
          "name()": "06fdde03",
          "symbol()": "95d89b41",
          "totalSupply()": "18160ddd",
          "transfer(address,uint256)": "a9059cbb",
          "transferFrom(address,address,uint256)": "23b872dd"
        }
      }
    }
  }
}