{
  "_format": "hh-sol-artifact-1",
  "contractName": "ERC",
  "sourceName": "contracts/ERC.sol",
  "abi": [
    {
      "inputs": [
        {
          "internalType": "string",
          "name": "_iName",
          "type": "string"
        },
        {
          "internalType": "string",
          "name": "_iSymbol",
          "type": "string"
        },
        {
          "internalType": "uint256",
          "name": "_iTotalSupply",
          "type": "uint256"
        },
        {
          "internalType": "uint8",
          "name": "_iDecimals",
          "type": "uint8"
        }
      ],
      "stateMutability": "nonpayable",
      "type": "constructor"
    },
    {
      "anonymous": false,
      "inputs": [
        {
          "indexed": true,
          "internalType": "address",
          "name": "_owner",
          "type": "address"
        },
        {
          "indexed": true,
          "internalType": "address",
          "name": "_spender",
          "type": "address"
        },
        {
          "indexed": false,
          "internalType": "uint256",
          "name": "_value",
          "type": "uint256"
        }
      ],
      "name": "Approval",
      "type": "event"
    },
    {
      "anonymous": false,
      "inputs": [
        {
          "indexed": true,
          "internalType": "address",
          "name": "_from",
          "type": "address"
        },
        {
          "indexed": true,
          "internalType": "address",
          "name": "_to",
          "type": "address"
        },
        {
          "indexed": false,
          "internalType": "uint256",
          "name": "_value",
          "type": "uint256"
        }
      ],
      "name": "Transfer",
      "type": "event"
    },
    {
      "inputs": [],
      "name": "_decimals",
      "outputs": [
        {
          "internalType": "uint8",
          "name": "",
          "type": "uint8"
        }
      ],
      "stateMutability": "view",
      "type": "function"
    },
    {
      "inputs": [],
      "name": "_name",
      "outputs": [
        {
          "internalType": "string",
          "name": "",
          "type": "string"
        }
      ],
      "stateMutability": "view",
      "type": "function"
    },
    {
      "inputs": [],
      "name": "_symbol",
      "outputs": [
        {
          "internalType": "string",
          "name": "",
          "type": "string"
        }
      ],
      "stateMutability": "view",
      "type": "function"
    },
    {
      "inputs": [],
      "name": "_totalSupply",
      "outputs": [
        {
          "internalType": "uint256",
          "name": "",
          "type": "uint256"
        }
      ],
      "stateMutability": "view",
      "type": "function"
    },
    {
      "inputs": [
        {
          "internalType": "address",
          "name": "_owner",
          "type": "address"
        },
        {
          "internalType": "address",
          "name": "_spender",
          "type": "address"
        }
      ],
      "name": "allowance",
      "outputs": [
        {
          "internalType": "uint256",
          "name": "",
          "type": "uint256"
        }
      ],
      "stateMutability": "view",
      "type": "function"
    },
    {
      "inputs": [
        {
          "internalType": "address",
          "name": "_spender",
          "type": "address"
        },
        {
          "internalType": "uint256",
          "name": "_value",
          "type": "uint256"
        }
      ],
      "name": "approve",
      "outputs": [
        {
          "internalType": "bool",
          "name": "",
          "type": "bool"
        }
      ],
      "stateMutability": "nonpayable",
      "type": "function"
    },
    {
      "inputs": [
        {
          "internalType": "address",
          "name": "_owner",
          "type": "address"
        }
      ],
      "name": "balanceOf",
      "outputs": [
        {
          "internalType": "uint256",
          "name": "",
          "type": "uint256"
        }
      ],
      "stateMutability": "view",
      "type": "function"
    },
    {
      "inputs": [
        {
          "internalType": "address",
          "name": "_account",
          "type": "address"
        },
        {
          "internalType": "uint256",
          "name": "_amount",
          "type": "uint256"
        }
      ],
      "name": "burn",
      "outputs": [],
      "stateMutability": "nonpayable",
      "type": "function"
    },
    {
      "inputs": [],
      "name": "decimals",
      "outputs": [
        {
          "internalType": "uint8",
          "name": "",
          "type": "uint8"
        }
      ],
      "stateMutability": "view",
      "type": "function"
    },
    {
      "inputs": [
        {
          "internalType": "address",
          "name": "_account",
          "type": "address"
        },
        {
          "internalType": "uint256",
          "name": "_amount",
          "type": "uint256"
        }
      ],
      "name": "mint",
      "outputs": [],
      "stateMutability": "nonpayable",
      "type": "function"
    },
    {
      "inputs": [],
      "name": "name",
      "outputs": [
        {
          "internalType": "string",
          "name": "",
          "type": "string"
        }
      ],
      "stateMutability": "view",
      "type": "function"
    },
    {
      "inputs": [],
      "name": "symbol",
      "outputs": [
        {
          "internalType": "string",
          "name": "",
          "type": "string"
        }
      ],
      "stateMutability": "view",
      "type": "function"
    },
    {
      "inputs": [],
      "name": "totalSupply",
      "outputs": [
        {
          "internalType": "uint256",
          "name": "",
          "type": "uint256"
        }
      ],
      "stateMutability": "view",
      "type": "function"
    },
    {
      "inputs": [
        {
          "internalType": "address",
          "name": "_to",
          "type": "address"
        },
        {
          "internalType": "uint256",
          "name": "_value",
          "type": "uint256"
        }
      ],
      "name": "transfer",
      "outputs": [
        {
          "internalType": "bool",
          "name": "",
          "type": "bool"
        }
      ],
      "stateMutability": "nonpayable",
      "type": "function"
    },
    {
      "inputs": [
        {
          "internalType": "address",
          "name": "_from",
          "type": "address"
        },
        {
          "internalType": "address",
          "name": "_to",
          "type": "address"
        },
        {
          "internalType": "uint256",
          "name": "_value",
          "type": "uint256"
        }
      ],
      "name": "transferFrom",
      "outputs": [
        {
          "internalType": "bool",
          "name": "",
          "type": "bool"
        }
      ],
      "stateMutability": "nonpayable",
      "type": "function"
    }
  ],
  "bytecode": "0x60806040523480156200001157600080fd5b506040516200313638038062003136833981810160405281019062000037919062000464565b6200006b7f58b07ffae8f260178b56f42fd3b61657999afa7d304fcc34413fbed7a20a2c9a60001b6200031160201b60201c565b6200009f7f4c6f3311dca5dd41fd2bbc97ab816b7befd620f7c675c0b81f1d07b3d7f6f41f60001b6200031160201b60201c565b620000d37fffc77cd5b096c471a937bd22866c0d6398a89fca1b5741fe8e52f74a56a232be60001b6200031160201b60201c565b336000806101000a81548173ffffffffffffffffffffffffffffffffffffffff021916908373ffffffffffffffffffffffffffffffffffffffff160217905550620001477fd3581d6b75b12b85841ece8ca0bdb60d55dd8eebfb88c7beac39e9e0bfa1474d60001b6200031160201b60201c565b6200017b7f912bf14c2606663152fab4b134850e2dd8398513b21e1c997d6cad0bf94aa5ad60001b6200031160201b60201c565b83600390805190602001906200019392919062000314565b50620001c87f90c81eb2e203104a3263bbe643a7078a8fc4d3b44902d79cb986cd271c5ea16660001b6200031160201b60201c565b620001fc7f9ddd07283b776c64cbdcde32582e66dbf4c71350e302eebed59adc6d7b53c04760001b6200031160201b60201c565b82600490805190602001906200021492919062000314565b50620002497f0292449316bd453062560cb1c4c5771b16c414d14570e464215cd9ffe193b07d60001b6200031160201b60201c565b6200027d7ff5894675747953129472cfcac8e1a7f00d94174ab14bb19626d9384fdbcc3ace60001b6200031160201b60201c565b81600581905550620002b87f4498afbba4fc44db890bafa04680fa70a1beb6640efb730ec4af07ef11f7816160001b6200031160201b60201c565b620002ec7f42bc623f28d05875ce6434df5d994ac97568933ee031fe01c01dba084d848f7960001b6200031160201b60201c565b80600660006101000a81548160ff021916908360ff16021790555050505050620006bd565b50565b8280546200032290620005ae565b90600052602060002090601f01602090048101928262000346576000855562000392565b82601f106200036157805160ff191683800117855562000392565b8280016001018555821562000392579182015b828111156200039157825182559160200191906001019062000374565b5b509050620003a19190620003a5565b5090565b5b80821115620003c0576000816000905550600101620003a6565b5090565b6000620003db620003d5846200052b565b62000502565b905082815260208101848484011115620003f457600080fd5b6200040184828562000578565b509392505050565b600082601f8301126200041b57600080fd5b81516200042d848260208601620003c4565b91505092915050565b600081519050620004478162000689565b92915050565b6000815190506200045e81620006a3565b92915050565b600080600080608085870312156200047b57600080fd5b600085015167ffffffffffffffff8111156200049657600080fd5b620004a48782880162000409565b945050602085015167ffffffffffffffff811115620004c257600080fd5b620004d08782880162000409565b9350506040620004e38782880162000436565b9250506060620004f6878288016200044d565b91505092959194509250565b60006200050e62000521565b90506200051c8282620005e4565b919050565b6000604051905090565b600067ffffffffffffffff82111562000549576200054862000649565b5b620005548262000678565b9050602081019050919050565b6000819050919050565b600060ff82169050919050565b60005b83811015620005985780820151818401526020810190506200057b565b83811115620005a8576000848401525b50505050565b60006002820490506001821680620005c757607f821691505b60208210811415620005de57620005dd6200061a565b5b50919050565b620005ef8262000678565b810181811067ffffffffffffffff8211171562000611576200061062000649565b5b80604052505050565b7f4e487b7100000000000000000000000000000000000000000000000000000000600052602260045260246000fd5b7f4e487b7100000000000000000000000000000000000000000000000000000000600052604160045260246000fd5b6000601f19601f8301169050919050565b620006948162000561565b8114620006a057600080fd5b50565b620006ae816200056b565b8114620006ba57600080fd5b50565b612a6980620006cd6000396000f3fe608060405234801561001057600080fd5b50600436106100f55760003560e01c806340c10f1911610097578063a9059cbb11610066578063a9059cbb14610276578063b09f1266146102a6578063d28d8852146102c4578063dd62ed3e146102e2576100f5565b806340c10f19146101f057806370a082311461020c57806395d89b411461023c5780639dc29fac1461025a576100f5565b806323b872dd116100d357806323b872dd14610166578063313ce5671461019657806332424aa3146101b45780633eaaf86b146101d2576100f5565b806306fdde03146100fa578063095ea7b31461011857806318160ddd14610148575b600080fd5b610102610312565b60405161010f91906124db565b60405180910390f35b610132600480360381019061012d91906122e3565b610428565b60405161013f91906124c0565b60405180910390f35b61015061051b565b60405161015d919061261d565b60405180910390f35b610180600480360381019061017b9190612294565b6105a9565b60405161018d91906124c0565b60405180910390f35b61019e610820565b6040516101ab9190612638565b60405180910390f35b6101bc6108bb565b6040516101c99190612638565b60405180910390f35b6101da6108ce565b6040516101e7919061261d565b60405180910390f35b61020a600480360381019061020591906122e3565b6108d4565b005b6102266004803603810190610221919061222f565b610d96565b604051610233919061261d565b60405180910390f35b610244610e63565b60405161025191906124db565b60405180910390f35b610274600480360381019061026f91906122e3565b610f79565b005b610290600480360381019061028b91906122e3565b61156d565b60405161029d91906124c0565b60405180910390f35b6102ae611660565b6040516102bb91906124db565b60405180910390f35b6102cc6116ee565b6040516102d991906124db565b60405180910390f35b6102fc60048036038101906102f79190612258565b61177c565b604051610309919061261d565b60405180910390f35b60606103407f3772126c395eff0fe5a71ce943e5dd82724793983c8a882b27950b116d9d36a760001b611887565b61036c7faa3706257df3a1e27586b630427141ab1896b2929129b1a8287c4ecb4a71508f60001b611887565b6103987fe29fb0d7b3fcd6184f9deebdb4f9b0821e5f463a016af8fddfd2f6c3e44977aa60001b611887565b600380546103a590612781565b80601f01602080910402602001604051908101604052809291908181526020018280546103d190612781565b801561041e5780601f106103f35761010080835404028352916020019161041e565b820191906000526020600020905b81548152906001019060200180831161040157829003601f168201915b5050505050905090565b60006104567ffb5e89febfbf5b7d3e1340f609d1d5a7e4ff16e9e7f1d1c76ec987915402d6ea60001b611887565b6104827fef623d15125e6d5276ae89cdd7b3ed14e92770fe7075ca7504a7a8eeaae7b8a660001b611887565b6104ae7f01936b3d44796154a9c0ae2f0a4be5f303ea13152c3192adfd0b30dad636f07c60001b611887565b6104b933848461188a565b6104e57f0b9326a39f89f4c18896d857b9a4878fdb7610f46ef156045605818624fd382360001b611887565b6105117f58428c4147de40c01ba51f76a721a58d0d6235081f11ef8bcd374a2fb6fdd3d060001b611887565b6001905092915050565b60006105497f2ee20936bab3d55b2898917af21c18c139263c1ccfe190e4e8f453b97a929e9560001b611887565b6105757f8d8161a30128112cd5450c31a8be5b0b64ab397c75b6d66839dbd53e67d5678a60001b611887565b6105a17fe2af162deab6a6f0c45efd9a4dbc137e95e866eea8495a39b879db90495eaa6d60001b611887565b600554905090565b60006105d77fe1e2214966179855ff34f27b0a90fcb7c727975d272a094a37e89ec0d8785aaa60001b611887565b6106037f6ea21ab26b5364e2662304bafae92e54bbd0872e953484889f90cd902cbe2e8b60001b611887565b61062f7f6cd4c5e8544a150ee9dcf9c5532478e226b6733e0d6a9a4cbee56b6fc4e27ff860001b611887565b61065b7f69eee6407475c1f317d8570041d2b4a48deabaf225012169212217979a3ca7e960001b611887565b600073ffffffffffffffffffffffffffffffffffffffff168473ffffffffffffffffffffffffffffffffffffffff1614156106cb576040517f08c379a00000000000000000000000000000000000000000000000000000000081526004016106c29061259d565b60405180910390fd5b6106f77fe34e10c845a162c8737ce5cfae9af781736c5326b4b667eb82c4d12dba9075b060001b611887565b6107237f351645880fab6eadf65d9e5fd05e78ceaa6c0617c9946eef2b7b14bedbbcb80d60001b611887565b61074f7f6941c61c991cba84b0caef8c0379b3d989f17522ecfc621c086f02c38ba46a7a60001b611887565b61075a843384611b70565b6107867fd3f9d9b8b65d5b194eb586676d8b07d2195f7399715443e04ac67eaad8a0e40860001b611887565b6107b27fc0f460cabada4d62799a2739fe58dc153ad469ece0c5dfd793e20ab23e009aff60001b611887565b6107bd848484611d69565b6107e97ff8d934478bac2143b13a950f19c658816a8d57190d7a77d6f39e0db076793e1d60001b611887565b6108157f5588eda8569ffa61cf0b8507f273965205608376c977bd6d125ad28bd53d31bf60001b611887565b600190509392505050565b600061084e7ffd3ce171744ca71c8e991fd17f97e757004c812f04bd9d3101c60b03cd58708d60001b611887565b61087a7f16a6652188636b423ea133e927af53d5616ed747bc06fb2408e6daa3a95ab97d60001b611887565b6108a67f2d92cad70abb34e94a741142ad4edc383a5701b941f1ed454076b4a8c21c7ec760001b611887565b600660009054906101000a900460ff16905090565b600660009054906101000a900460ff1681565b60055481565b6109007f162777d7e77b6618731c5587cd96476fd182f6a2c97071c4750114ffb9e1929060001b611887565b61092c7f8c358fa05326d3d059f81b5875329ef29e39e416e956b99eb83831b462b5a61c60001b611887565b6109587f21e567e0d7e8e8f92ee2213b0b582f085f9c89415c5278c9a93a19685b65e3b360001b611887565b6109847f13ba635debb775fb71ff07734c9adef80e37cdd2f7eef2482fd45a79ac90e22c60001b611887565b60008054906101000a900473ffffffffffffffffffffffffffffffffffffffff1673ffffffffffffffffffffffffffffffffffffffff163373ffffffffffffffffffffffffffffffffffffffff1614610a12576040517f08c379a0000000000000000000000000000000000000000000000000000000008152600401610a099061257d565b60405180910390fd5b610a3d7ecaf36cfde34b023229d59bae95dd20fcdb5629c4b9a96445a47f799d5cfc4c60001b611887565b610a697ff921d7f2dc38b0a27bc1e5ce9c9be49ac0682dbdad86153516efd691e5f061ce60001b611887565b610a957fe97ec508168546606798a94a23c8d5f941ed529fe54320a64f11dae5d1d750ec60001b611887565b610ac17f2cb546232bf5a2f3985af6d357e287f8502166cbd78c977a4deb530a912176c060001b611887565b610aed7f747af08505e43542c75c2c49a734d9be81deb7b1d3bf1e2efb574e6f1de14afb60001b611887565b610b197f939ff9bb1a89b59aaff4d6bbec5f7d43aa338e3f421503388e0fd770b884198560001b611887565b600073ffffffffffffffffffffffffffffffffffffffff168273ffffffffffffffffffffffffffffffffffffffff161415610b89576040517f08c379a0000000000000000000000000000000000000000000000000000000008152600401610b809061255d565b60405180910390fd5b610bb57fb773a95ea72b19ad91e4d89db74c59ea2ac87eb7e7b8607fa50cf2c46103049960001b611887565b610be17f81b8eace0dab69d2e8d2675d9d340acc556a9f2dc0f9fb0dcb252d5169d8c2f060001b611887565b610c0d7fa688371f7e08ee5f16d68ca8187e74c6d0b6ba8b010cda6ec800afbcd3c5f6f960001b611887565b8060056000828254610c1f919061266f565b92505081905550610c527ffd2d1687b2e46edb8aab725c859834337c18910e25685a8e3314eb7daaf49cec60001b611887565b610c7e7fe629b9cbfedfd393ae85e6251b331d0a24de9971ce2f8ce6273bf340dbe2bdd060001b611887565b80600160008473ffffffffffffffffffffffffffffffffffffffff1673ffffffffffffffffffffffffffffffffffffffff1681526020019081526020016000206000828254610ccd919061266f565b92505081905550610d007fcaffe313101ccea09575837f23683a82d95dadb28e52d4d08f6bfb2d54304fd860001b611887565b610d2c7fab826231746df3741d30b662df749ccb7ff9ac20c1ec111c0dbb4e2e5da0d5eb60001b611887565b8173ffffffffffffffffffffffffffffffffffffffff16600073ffffffffffffffffffffffffffffffffffffffff167fddf252ad1be2c89b69c2b068fc378daa952ba7f163c4a11628f55a4df523b3ef83604051610d8a919061261d565b60405180910390a35050565b6000610dc47ff846def740b4c0d7f59537fc620dc8dbec2259149c8ffc9963e7aa0005c4350e60001b611887565b610df07fe66b0543ec0a786e5c44bb33066218ed33e9a5e53738436b1d9d3815de4105ef60001b611887565b610e1c7f459e476588c63dc186af859a3859c26f813d2edf55dfcd741e98aa519acfffa860001b611887565b600160008373ffffffffffffffffffffffffffffffffffffffff1673ffffffffffffffffffffffffffffffffffffffff168152602001908152602001600020549050919050565b6060610e917f4caa56f640c6dcd29fd162964e7d5f117d9c478a5d82099873767732bc6de1a260001b611887565b610ebd7f9cd4c9fdb40f201562af2ee2a1484ce14233bbbaf9470e173766d0bd4e4393f660001b611887565b610ee97fd6bd334d3ea24e29d686ad2abed6e1f2e86eec843e599ca4f3323d872aad6db060001b611887565b60048054610ef690612781565b80601f0160208091040260200160405190810160405280929190818152602001828054610f2290612781565b8015610f6f5780601f10610f4457610100808354040283529160200191610f6f565b820191906000526020600020905b815481529060010190602001808311610f5257829003601f168201915b5050505050905090565b610fa57f162777d7e77b6618731c5587cd96476fd182f6a2c97071c4750114ffb9e1929060001b611887565b610fd17f8c358fa05326d3d059f81b5875329ef29e39e416e956b99eb83831b462b5a61c60001b611887565b610ffd7f21e567e0d7e8e8f92ee2213b0b582f085f9c89415c5278c9a93a19685b65e3b360001b611887565b6110297f13ba635debb775fb71ff07734c9adef80e37cdd2f7eef2482fd45a79ac90e22c60001b611887565b60008054906101000a900473ffffffffffffffffffffffffffffffffffffffff1673ffffffffffffffffffffffffffffffffffffffff163373ffffffffffffffffffffffffffffffffffffffff16146110b7576040517f08c379a00000000000000000000000000000000000000000000000000000000081526004016110ae9061257d565b60405180910390fd5b6110e27ecaf36cfde34b023229d59bae95dd20fcdb5629c4b9a96445a47f799d5cfc4c60001b611887565b61110e7ff921d7f2dc38b0a27bc1e5ce9c9be49ac0682dbdad86153516efd691e5f061ce60001b611887565b61113a7f3e65ef43967ab454660a5d24dcc67b79fca4b2b7b656ef625b9188dbe9aafeec60001b611887565b6111667f9b4d5f42350221e71d3c4c13d967f2cb076dab89d3fb4f539f492a5a569fb49d60001b611887565b6111927fa8feb1851757be53e2117f12c3625f242b4ac3bd7a5db645bb0a2539aab2088960001b611887565b6111be7f37edbeda5a6e99862d147dd673b87e88126be291b3046b62197f077d7d031d3560001b611887565b600073ffffffffffffffffffffffffffffffffffffffff168273ffffffffffffffffffffffffffffffffffffffff16141561122e576040517f08c379a00000000000000000000000000000000000000000000000000000000081526004016112259061253d565b60405180910390fd5b61125a7f48e2d32e8fac354482adcd2d2eb5a771268f18032308b72be9d2be0f7a8091b860001b611887565b6112867f454560fbd4c4fa34511f63b6a42b8e9bf540ba819827fa2b1b7b6cb72960206960001b611887565b6112b27f5b7906cff4b819620aead2cd4671cf74bd126018dfb41d5cc7d5d2ee6734ee4a60001b611887565b6112de7fd060c538c6d85c2e10262119862ef0150f59519e0650141761cc3eed185ecaac60001b611887565b600160008373ffffffffffffffffffffffffffffffffffffffff1673ffffffffffffffffffffffffffffffffffffffff16815260200190815260200160002054811115611360576040517f08c379a00000000000000000000000000000000000000000000000000000000081526004016113579061251d565b60405180910390fd5b61138c7fec302412ae66a7768e30f7330fcd84f36c5132157a45b77d37cdbaf50830f4ac60001b611887565b6113b87f324460679e84b367b1a7bab1c582c726dd4695a09dcbc5b507ff47f21d61291660001b611887565b6113e47fdd1ceaf8b046b215fa8d93cde45f4ffeac80acadefa0501e9c87a99c9569958660001b611887565b80600560008282546113f691906126c5565b925050819055506114297fe1c40325ccca779d7139d02ff4a74204ae83c7f137520868f88fab42b7b5516460001b611887565b6114557fe1305207fb39923d835f13582f57776e2f5ba038d106f7a52b30ca61d7d5812960001b611887565b80600160008473ffffffffffffffffffffffffffffffffffffffff1673ffffffffffffffffffffffffffffffffffffffff16815260200190815260200160002060008282546114a491906126c5565b925050819055506114d77f2fb3c467472c357a96db3e01764c05dc072627da800b50b428e351f94eed88f760001b611887565b6115037f59ee3dd4777946ed50ebed697dccbcdae70ead11d914a2332224f39447a754a960001b611887565b600073ffffffffffffffffffffffffffffffffffffffff168273ffffffffffffffffffffffffffffffffffffffff167fddf252ad1be2c89b69c2b068fc378daa952ba7f163c4a11628f55a4df523b3ef83604051611561919061261d565b60405180910390a35050565b600061159b7f2ea8ea5dcabe0198b3a06fa095002ae57831d26b6cf5ac6cc0fa470eb96b07e560001b611887565b6115c77f2e5eaa89ec1db195c260a3823be942c19b69cb8f3927abc9776646e88cbc5cee60001b611887565b6115f37fc0acda2822c7b598380492b0808b2dd610b310d8ef7964447134814e2182760160001b611887565b6115fe338484611d69565b61162a7fddac52f7ffbf8bbb23744dd4c72dfc772730b96127f7e8b05efd194ebdb0559260001b611887565b6116567f44c23dd27160bb4955145e3d5b2292873f03a5d850f7c16a372136d09e37020460001b611887565b6001905092915050565b6004805461166d90612781565b80601f016020809104026020016040519081016040528092919081815260200182805461169990612781565b80156116e65780601f106116bb576101008083540402835291602001916116e6565b820191906000526020600020905b8154815290600101906020018083116116c957829003601f168201915b505050505081565b600380546116fb90612781565b80601f016020809104026020016040519081016040528092919081815260200182805461172790612781565b80156117745780601f1061174957610100808354040283529160200191611774565b820191906000526020600020905b81548152906001019060200180831161175757829003601f168201915b505050505081565b60006117aa7f9fb0d04692da1a546746e785617d4517496f247925f99f4b5f2660d28e7a190a60001b611887565b6117d67f4020aa70c606ffc749448bf164c4040162b1b2844538af537caf3149e56b4f3b60001b611887565b6118027f47166ddd6b46f117de54059cdf9c206de861f6add093335d6741010dd402f39360001b611887565b600260008473ffffffffffffffffffffffffffffffffffffffff1673ffffffffffffffffffffffffffffffffffffffff16815260200190815260200160002060008373ffffffffffffffffffffffffffffffffffffffff1673ffffffffffffffffffffffffffffffffffffffff16815260200190815260200160002054905092915050565b50565b6118b67f7dd666147d7c14a6fd19bb8b16f374bf6080d5a23bd04825b1b229df406c51b060001b611887565b6118e27faa62361d88dbc435a1874f0fcb40824a3c1b5d75cc18a8d260b6358401b9ae5e60001b611887565b61190e7f50492ac67ed3172b2276d5ea183df0a460ccd6d7e9a402ca667a8cff270a30ef60001b611887565b6119397eb13b849e310d32f55284f153d7a540f784e0cd19c0c676407804421c9dad7d60001b611887565b600073ffffffffffffffffffffffffffffffffffffffff168273ffffffffffffffffffffffffffffffffffffffff1614156119a9576040517f08c379a00000000000000000000000000000000000000000000000000000000081526004016119a0906125bd565b60405180910390fd5b6119d57f584be29e9091c38363423892465cc65cbd9862b1088a40cb73d52c0a52d8374760001b611887565b611a017fb8cd81152d7aed4256336e3010ddf9cfa32b3359cf0a503224f312bc1cf6ed4060001b611887565b611a2d7fea76e508a798ffc2adb55d0c16f1f228618670f3b577cf2825c1fab8f0cc5e6560001b611887565b80600260008573ffffffffffffffffffffffffffffffffffffffff1673ffffffffffffffffffffffffffffffffffffffff16815260200190815260200160002060008473ffffffffffffffffffffffffffffffffffffffff1673ffffffffffffffffffffffffffffffffffffffff16815260200190815260200160002081905550611ada7f62e9bd9d64e401beb5f400e8dfe993fd2ec4dfff41dbd97e540a6c34f900baac60001b611887565b611b067f0334f537e574bfda0fca8c13f4138b26f102fefda4439a4b5e7dd54dc700961a60001b611887565b8173ffffffffffffffffffffffffffffffffffffffff168373ffffffffffffffffffffffffffffffffffffffff167f8c5be1e5ebec7d5bd14f71427d1e84f3dd0314c0f7b2291e5b200ac8c7c3b92583604051611b63919061261d565b60405180910390a3505050565b611b9c7faa5c81d0181b50bee95d01c4dc9c0513de0aa313e2a1b3e59c1a1c438e523b6360001b611887565b611bc87fb90ef3575e21d40a4d408606db5efa74266efd341293e0ff2a6a781e42f356c460001b611887565b611bf47f9b508b29d7c004b7962cdef97bf6b616ffa43bba72c2732790125e5e3d975ef160001b611887565b6000611c00848461177c565b9050611c2e7f77ebf22ebbd8d83b2b3d23a5f834c7dcad1158e56e75a46929a6626294334c7360001b611887565b611c5a7f16e224c815bf1de8a33c7b6f14eafe91736997e55e86990e0aed95e199f588f560001b611887565b611c867f91f86099dda9437302063964d3ba895b20a6cf34d6a7eb07c8c360bc88dd31b060001b611887565b80821115611cc9576040517f08c379a0000000000000000000000000000000000000000000000000000000008152600401611cc0906125dd565b60405180910390fd5b611cf57fa50ac46d6948a95b451907bf671d86bfa64dc4da3e8e4ad3f9a6567f9a10241860001b611887565b611d217f44519d869de6629d55119e1d79252f5772bcc211233e1cf227a1e801384735ec60001b611887565b611d4d7f09341eaeb3ea42d27f1a0b4c64608eb8711206bd8cc8150be3e515114cfd56b060001b611887565b611d6384848484611d5e91906126c5565b61188a565b50505050565b611d957f713f7ae6de75331c61add69209deff162c0af68845cdc6f86677e20545e45bfb60001b611887565b611dc17f567cc10b1941fd4bd0f9d1d939dee677bfd30629f9c6d76c0fb5f31927a9290760001b611887565b611ded7f2d1d1d35c4aa7b8f70d9a15bf621f39117444c974eaedfb1f633c3271cec002f60001b611887565b611e197f3953515002ce6e911bea34e46442b7678cb89d926b125c94327380c01942ea2a60001b611887565b600073ffffffffffffffffffffffffffffffffffffffff168273ffffffffffffffffffffffffffffffffffffffff161415611e89576040517f08c379a0000000000000000000000000000000000000000000000000000000008152600401611e80906125fd565b60405180910390fd5b611eb57f2391fe80e1d56d5e0edc843cb302e5aeee77a76cde5977e7f6489dbdf8aee78660001b611887565b611ee17fe2c9b43ae52d6500347c94530a6b588d6f0e05f1d78248c7b9b868015949948260001b611887565b611f0d7fa8adb64723bec2f83f8d1162d25c74cec5c0952b02aa0d5c30a4300014d19b3160001b611887565b611f397fb0ce45c30f6f027e325824b0faaf9ab1ee0d5158acd51e4c461c5234292e92da60001b611887565b600160008473ffffffffffffffffffffffffffffffffffffffff1673ffffffffffffffffffffffffffffffffffffffff16815260200190815260200160002054811115611fbb576040517f08c379a0000000000000000000000000000000000000000000000000000000008152600401611fb2906124fd565b60405180910390fd5b611fe77f9affb590c066cc9ead92268837c2ba43df453c2e9e2aaaf51485d1db3c602ed360001b611887565b6120137f71abd23201867ea63930e3033714ad7ebc5e2c1b65187db2f76d6a29c7725aae60001b611887565b61203f7f505af44e74253e8c39ddeb8c4f35c4f18385b0a2ae7d8d4ebc61a8cd55d5273560001b611887565b80600160008573ffffffffffffffffffffffffffffffffffffffff1673ffffffffffffffffffffffffffffffffffffffff168152602001908152602001600020600082825461208e91906126c5565b925050819055506120c17f01f69cfaf2e94e31e2871946fce74ad76eb9d9d463622c38330335f4413e9b7b60001b611887565b6120ed7fd3f76da32bf2dd0bfe52ad650db92945cf47b744165270a878e58a9b16b298b060001b611887565b80600160008473ffffffffffffffffffffffffffffffffffffffff1673ffffffffffffffffffffffffffffffffffffffff168152602001908152602001600020600082825461213c919061266f565b9250508190555061216f7fd2cc57f00443755339d0f2fb575f4da79f5f12aac5aa9e4a8574992ca616521560001b611887565b61219b7f127d003ff653dcf45c86de5a9073afe6e0a15c18485f4cde520188d9f46cad4e60001b611887565b8173ffffffffffffffffffffffffffffffffffffffff168373ffffffffffffffffffffffffffffffffffffffff167fddf252ad1be2c89b69c2b068fc378daa952ba7f163c4a11628f55a4df523b3ef836040516121f8919061261d565b60405180910390a3505050565b60008135905061221481612a05565b92915050565b60008135905061222981612a1c565b92915050565b60006020828403121561224157600080fd5b600061224f84828501612205565b91505092915050565b6000806040838503121561226b57600080fd5b600061227985828601612205565b925050602061228a85828601612205565b9150509250929050565b6000806000606084860312156122a957600080fd5b60006122b786828701612205565b93505060206122c886828701612205565b92505060406122d98682870161221a565b9150509250925092565b600080604083850312156122f657600080fd5b600061230485828601612205565b92505060206123158582860161221a565b9150509250929050565b6123288161270b565b82525050565b600061233982612653565b612343818561265e565b935061235381856020860161274e565b61235c81612811565b840191505092915050565b6000612374601e8361265e565b915061237f82612822565b602082019050919050565b600061239760158361265e565b91506123a28261284b565b602082019050919050565b60006123ba601b8361265e565b91506123c582612874565b602082019050919050565b60006123dd60198361265e565b91506123e88261289d565b602082019050919050565b600061240060148361265e565b915061240b826128c6565b602082019050919050565b600061242360258361265e565b915061242e826128ef565b604082019050919050565b600061244660228361265e565b91506124518261293e565b604082019050919050565b6000612469601d8361265e565b91506124748261298d565b602082019050919050565b600061248c60238361265e565b9150612497826129b6565b604082019050919050565b6124ab81612737565b82525050565b6124ba81612741565b82525050565b60006020820190506124d5600083018461231f565b92915050565b600060208201905081810360008301526124f5818461232e565b905092915050565b6000602082019050818103600083015261251681612367565b9050919050565b600060208201905081810360008301526125368161238a565b9050919050565b60006020820190508181036000830152612556816123ad565b9050919050565b60006020820190508181036000830152612576816123d0565b9050919050565b60006020820190508181036000830152612596816123f3565b9050919050565b600060208201905081810360008301526125b681612416565b9050919050565b600060208201905081810360008301526125d681612439565b9050919050565b600060208201905081810360008301526125f68161245c565b9050919050565b600060208201905081810360008301526126168161247f565b9050919050565b600060208201905061263260008301846124a2565b92915050565b600060208201905061264d60008301846124b1565b92915050565b600081519050919050565b600082825260208201905092915050565b600061267a82612737565b915061268583612737565b9250827fffffffffffffffffffffffffffffffffffffffffffffffffffffffffffffffff038211156126ba576126b96127b3565b5b828201905092915050565b60006126d082612737565b91506126db83612737565b9250828210156126ee576126ed6127b3565b5b828203905092915050565b600061270482612717565b9050919050565b60008115159050919050565b600073ffffffffffffffffffffffffffffffffffffffff82169050919050565b6000819050919050565b600060ff82169050919050565b60005b8381101561276c578082015181840152602081019050612751565b8381111561277b576000848401525b50505050565b6000600282049050600182168061279957607f821691505b602082108114156127ad576127ac6127e2565b5b50919050565b7f4e487b7100000000000000000000000000000000000000000000000000000000600052601160045260246000fd5b7f4e487b7100000000000000000000000000000000000000000000000000000000600052602260045260246000fd5b6000601f19601f8301169050919050565b7f43616e6e6f74207472616e73666572206f7574206f662062616c616e63650000600082015250565b7f416d6f756e74206f7574206f662062616c616e63650000000000000000000000600082015250565b7f43616e74206275726e2066726f6d207a65726f20616464726573730000000000600082015250565b7f43616e74206d696e7420746f207a65726f206164647265737300000000000000600082015250565b7f596f7520617265206e6f7420616e206f776e6572000000000000000000000000600082015250565b7f43616e6e6f74207472616e736665722066726f6d20746865206e756c6c20616460008201527f6472657373000000000000000000000000000000000000000000000000000000602082015250565b7f43616e6e6f7420617070726f766520746f20746865206e756c6c20616464726560008201527f7373000000000000000000000000000000000000000000000000000000000000602082015250565b7f43616e6e6f74207370656e64206f7574206f6620616c6c6f77616e6365000000600082015250565b7f43616e6e6f74207472616e7366657220746f20746865206e756c6c206164647260008201527f6573730000000000000000000000000000000000000000000000000000000000602082015250565b612a0e816126f9565b8114612a1957600080fd5b50565b612a2581612737565b8114612a3057600080fd5b5056fea2646970667358221220378054c79d7ffc7d1ba08bb7a779d3f3bb98b316d7729e5f6658b4bc689ed12464736f6c63430008040033",
  "linkReferences": {},
  "deployedLinkReferences": {}
}